:020000040000FA
:060000000A128A11FC2F18
:10000A00F4000130F2007208831203139F0574088A
:10001A00F20002300310F20DFF3E031D0F280310F9
:10002A00720DF30073089F040D30F300FB30F200E9
:10003A00F20B1D28F30B1D282228831203131F1508
:10004A0026281F1929282A2826282B281E08F100C5
:10005A00831603131E08F000322808002230831288
:10006A000313A4002408A8001D2925302D0603190E
:10007A003F28402847282D080A128A15D9200A1233
:10008A008A111D2983120313A901502839297328BB
:10009A0073281D2973282108A5002008A400A00A96
:1000AA000319A10A2508FF00240884000A168A11E8
:1000BA0000200A128A11AD00A600A7012708003AFB
:1000CA00031968281D292608003A03193929643AB0
:1000DA00031973280D3A031973281D292808840067
:1000EA0083130008AB00840A0008AC000230A400A5
:1000FA002408A807AC1F822883288D280330A4006F
:10010A002408A904AB09AC09AB0A0319AC0A8D2867
:10011A00AD01AD0A05302D06031D942895289728B0
:10012A00C328C3282D08A4002407123E8400903057
:10013A000318013EFF000A168A1100200A128A11CA
:10014A00A5000A168A1100200A128A11A60026089A
:10015A002C02031DB22825082B020318B528B6283D
:10016A00B828C328C3280130A4002408AD070530E5
:10017A002D06031DC128C2289728C3282908033938
:10018A000319C828C928D0282D300A128A15D9205F
:10019A000A128A11D028831203132D08A4002408F6
:1001AA00AA0010290A30F8000030F9002A08A40031
:1001BA002407123E840090300318013EFF000A16FD
:1001CA008A1100200A128A11F0000A168A110020E8
:1001DA000A128A11F1002C08F3002B08F2000A1205
:1001EA008A15BE220A128A117108FB007008FA00E9
:1001FA000A128A1539220A128A117808303E8312A5
:10020A000313A5002508AD002D080A128A15D92066
:10021A000A128A111029FF3083120313A40024083A
:10022A00AA072A0A031D1A291B29D7281D291D29AD
:10023A00831203132108A5002008A400A00A0319A9
:10024A00A10A2508FF00240884000A168A11002042
:10025A000A128A11A6002608AD002D08031D3629A8
:10026A0037293A28392939290800831203138801C2
:10027A00831603138801831203138601831603135B
:10028A0086010A128A155D230A128A110A128A1530
:10029A00F6200A128A110A128A1515210A128A11DF
:1002AA000A128A15E1200A128A115B291C3083126C
:1002BA000313A0009030A1000A128A1133200A12F7
:1002CA008A11EA3083120313A0009030A1000A12A7
:1002DA008A1133200A128A110F3083120313A000E5
:1002EA009130A1000A128A1133200A128A11C230EF
:1002FA0083120313A0009030A1000A128A1133203E
:10030A000A128A11603083120313A0009030A100F0
:10031A000A128A1133200A128A11E7308312031350
:10032A00A0009130A1000A128A1133200A128A1100
:10033A00953083120313A0009030A1000A128A118B
:10034A0033200A128A110A128A1503210A128A1103
:10035A0083120313C000C1014008DA004108DB0020
:10036A005A080A128A15EA200A128A11E7308312F9
:10037A000313A0009130A1000A128A1133200A1235
:10038A008A11662CA23083120313A0009130A100B7
:10039A000A128A1133200A128A1104300A128A11A7
:1003AA0005200A128A11700883120313C00071080B
:1003BA00C100C201C3014308F8004208F70041081E
:1003CA00F6004008F50000300A128A152D250A1297
:1003DA008A11780883120313C7007708C6007608C3
:1003EA00C5007508C4004030A3009C30A2003F300D
:1003FA00A100FB30A0004708A7004608A600450850
:10040A00A5004408A4000A128A1187240A128A1134
:10041A00831203132308CB002208CA002108C9004B
:10042A002008C8004130F3002030F2000030F1000B
:10043A000030F0004B08F7004A08F6004908F500BA
:10044A004808F4000A128A15F1250A128A1173085B
:10045A0083120313CF007208CE007108CD00700812
:10046A00CC004F08A7004E08A6004D08A5004C086E
:10047A00A4004230A300C830A2000030A10000301E
:10048A00A0000A128A1187240A128A1183120313FE
:10049A002308B8002208B7002108B6002008B500D2
:1004AA000A128A1591240A128A1183120313360832
:1004BA00DD003508DC000A30F9000030FA00E830C7
:1004CA00F0000330F1005D08F3005C08F2000A1244
:1004DA008A1520240A128A117108FC007008FB0090
:1004EA000A128A15BB230A128A117A088312031385
:1004FA00D1007908D0000A30F9000030FA006430DF
:10050A00F0000030F1005D08F3005C08F2000A1206
:10051A008A1520240A128A117108FC007008FB004F
:10052A000A128A15BB230A128A117A088312031344
:10053A00D3007908D2000A30F9000030FA000A30F4
:10054A00F0000030F1005D08F3005C08F2000A12C6
:10055A008A1520240A128A117108FC007008FB000F
:10056A000A128A15BB230A128A117A088312031304
:10057A00D5007908D4000A30F9000030FA005D0885
:10058A00FC005C08FB000A128A15BB230A128A11B6
:10059A007A0883120313D7007908D600BB30A0006B
:1005AA009130A1000A128A1133200A128A11EF30FF
:1005BA0083120313A0009130A1005108A300500830
:1005CA00A2000A128A1133200A128A11EF3083120A
:1005DA000313A0009130A1005308A3005208A200FF
:1005EA000A128A1133200A128A11B93083120313AC
:1005FA00A0009130A1000A128A1133200A128A112E
:10060A00EF3083120313A0009130A1005508A30014
:10061A005408A2000A128A1133200A128A11EF30F2
:10062A0083120313A0009130A1005708A3005608B3
:10063A00A2000A128A1133200A128A118630831202
:10064A000313A0009130A1000A128A1133200A1262
:10065A008A110A128A15F6200A128A1103308312A5
:10066A000313C0004008F40001300A128A15092356
:10067A000A128A11DB30F5009130F6000A128A1547
:10068A007A220A128A11053083120313C000400825
:10069A00F40002300A128A1509230A128A118312F7
:1006AA0003135008303E0A128A1500220A128A11D0
:1006BA00831203135208303E0A128A1500220A12C4
:1006CA008A11B930F5009130F6000A128A157A2299
:1006DA000A128A11831203135408303E0A128A1529
:1006EA0000220A128A11831203135608303E0A1294
:1006FA008A1500220A128A11DF300A128A1500228C
:10070A000A128A11F230F5009130F6000A128A159F
:10071A007A220A128A114D3083120313C200193049
:10072A00C1004F30C000C00B982BC10B982BC20BD5
:10073A00982B0A128A15F6200A128A117B2C7B2C16
:10074A006F3083120313A0009130A1000A128A119C
:10075A0033200A128A11F401F40A01300A128A15A6
:10076A0009230A128A11CB30F5009130F6000A12D9
:10077A008A157A220A128A11F401F40A02300A123C
:10078A008A1509230A128A118930F5009130F60078
:10079A000A128A157A220A128A1133308312031333
:1007AA00C200BB30C100DF30C000C00BDA2BC10B66
:1007BA00DA2BC20BDA2B0A128A15F6200A128A11D0
:1007CA007B2CF401F40A01300A128A1509230A1251
:1007DA008A115030F5009130F6000A128A157A22F1
:1007EA000A128A11F401F40A02300A128A1509233C
:1007FA000A128A113130F5009130F6000A128A1570
:10080A007A220A128A1183120313D801D9015908CC
:10081A00803AFF0080307F02031D152C03305802F6
:10082A00031C182C192C1B2C5F2C5F2C0A128A15FE
:10083A0094210A128A1183120313861406110430B2
:10084A0083120313C200CF30C1000130C000C00BB5
:10085A002C2CC10B2C2CC20B2C2C0A128A15CA2147
:10086A000A128A11831203130615861004308312A2
:10087A000313C200CF30C1000130C000C00B432CAB
:10088A00C10B432CC20B432C013083120313D8072C
:10089A000318D90A0030D9075908803AFF00803076
:1008AA007F02031D5A2C03305802031C5D2C5E2C58
:1008BA001B2C5F2C0A128A15F6200A128A117B2C2D
:1008CA007B2C831203135B08003A03196D2C7B2CD3
:1008DA005A08313A0319C729033A03197B2C013AFA
:1008EA000319A52B073A0319E62B7B2C8312031352
:1008FA005A085B04031D822C832C5B29842C0A1260
:10090A008A1100288312031323088039F900790811
:10091A00A8002308F9007907FA007A08AE00A21F96
:10092A00972C982C9A2C2E149A2C2E0803199E2C4C
:10093A009F2CAF2C2E0A031DA32CA42CAD2C003007
:10094A00A3000030A2000030A1000030A000AD2CAE
:10095A00A217B82C0030A3000030A2000030A1007A
:10096A000030A000B82C27088039F9007908A806B9
:10097A002708F9007907FA007A08AD00A61FC62CE5
:10098A00C72CC92C2D14C92C2D080319CD2CCE2CFB
:10099A00DE2C2D0A031DD22CD32CDC2C0030A70010
:1009AA000030A6000030A5000030A400DC2CA617F9
:1009BA00E72C0030A7000030A6000030A500003068
:1009CA00A400E72C2D080319EB2CEC2CF22C2E0892
:1009DA00031DF02CF12CFC2CF22C0030A30000306B
:1009EA00A2000030A1000030A000FB2FFB2F20083E
:1009FA00F9007908F00026080A128A156A210A12F3
:100A0A008A11710883120313B4007008B300330803
:100A1A00F900FA01FB01FC017C08AC007B08AB0081
:100A2A007A08AA007908A9003408F900FA01FB013A
:100A3A00FC017C08B2007B08B1007A08B000790892
:100A4A00AF002108F9007908F00025080A128A1572
:100A5A006A210A128A11710883120313B4007008FA
:100A6A00B3003308F900FA01FB01FC017908A90770
:100A7A007A0803110318013E0319442DAA077B08BB
:100A8A0003110318013E03194B2DAB077C08031110
:100A9A000318013E0319522DAC073408F900FA0174
:100AAA00FB01FC017908AF077A0803110318013E1C
:100ABA000319602DB0077B0803110318013E0319BF
:100ACA00672DB1077C0803110318013E03196E2D27
:100ADA00B2072208F9007908F00024080A128A15D8
:100AEA006A210A128A11710883120313B40070086A
:100AFA00B3003308F900FA01FB01FC017908A907E0
:100B0A007A0803110318013E03198C2DAA077B08E2
:100B1A0003110318013E0319932DAB077C08031137
:100B2A000318013E03199A2DAC073408F900FA019B
:100B3A00FB01FC017908AF077A0803110318013E8B
:100B4A000319A82DB0077B0803110318013E0319E6
:100B5A00AF2DB1077C0803110318013E0319B62D06
:100B6A00B2070830F9000310A90DAA0DAB0DAC0DA0
:100B7A00F90BB82D2108F9007908F00024080A12A7
:100B8A008A156A210A128A11710883120313B400A2
:100B9A007008B3003308F9003408FA00FB01FC01BD
:100BAA007908A9077A0803110318013E0319DE2DF3
:100BBA00AA077B0803110318013E0319E52DAB07A9
:100BCA007C0803110318013E0319EC2DAC07200819
:100BDA00F9007908F00025080A128A156A210A1212
:100BEA008A11710883120313B4007008B300330822
:100BFA00F9003408FA00FB01FC017908A9077A0810
:100C0A0003110318013E03190B2EAA077B080311CF
:100C1A000318013E0319122EAB077C0803110318AF
:100C2A00013E0319192EAC070830F9000310A90D6B
:100C3A00AA0DAB0DAC0DF90B1B2E2008F900790893
:100C4A00F00024080A128A156A210A128A11710808
:100C5A0083120313B4007008B3003308F900340890
:100C6A00FA00FB01FC017908A9077A0803110318A5
:100C7A00013E0319412EAA077B0803110318013EFE
:100C8A000319482EAB077C0803110318013E031908
:100C9A004F2EAC072108F9007908F00026080A123D
:100CAA008A156A210A128A11710883120313B40081
:100CBA007008B3003308F9003408FA00FB01FC019C
:100CCA007908AF077A0803110318013E03196E2E3B
:100CDA00B0077B0803110318013E0319752EB107EB
:100CEA007C0803110318013E03197C2EB20722085F
:100CFA00F9007908F00025080A128A156A210A12F1
:100D0A008A11710883120313B4007008B300330800
:100D1A00F9003408FA00FB01FC017908AF077A08E8
:100D2A0003110318013E03199B2EB0077B08031118
:100D3A000318013E0319A22EB1077C0803110318F8
:100D4A00013E0319A92EB2072208F9007908F0001A
:100D5A0026080A128A156A210A128A117108831250
:100D6A000313B4007008B3003308F9003408FA001A
:100D7A00FB01FC0108300310F90DFA0DFB0DFC0D07
:100D8A00FF3E031DC02E7908AF077A080311031826
:100D9A00013E0319D12EB0077B0803110318013E47
:100DAA000319D82EB1077C0803110318013E031951
:100DBA00DF2EB2072908F9002A08FA002B08FB00DF
:100DCA002C08FC0018300310FC0CFB0CFA0CF90C74
:100DDA00FF3E031DE82E7908AF077A0803110318AE
:100DEA00013E0319F92EB0077B0803110318013ECF
:100DFA000319002FB1077C0803110318013E0319D8
:100E0A00072FB2070830F9000310A90DAA0DAB0D80
:100E1A00AC0DF90B092F2E082D07F900FA01FA0D6E
:100E2A007908823EB3007A080318013EFF3EB400F7
:100E3A003D2F0130F9000310AF0DB00DB10DB20D09
:100E4A00F90B202FAC1F2A2F2B2F2D2F2F142D2FCC
:100E5A000130F9000310A90DAA0DAB0DAC0DF90B69
:100E6A002F2FFF30B3070318B40AFF30B4073D2F02
:100E7A00B11F402F412F1E2F422FAD01AC1F462F0D
:100E8A00472F672FFF302905F900FF302A05FA009E
:100E9A00FF302B05FB007F302C05FC007C087B040F
:100EAA007A04790403195A2F5B2F5E2FAD01AD0A1C
:100EBA00672F2F1C612F622F672FAD01AD0A672F95
:100ECA00672F672F2D0803196B2F6C2F9F2F013067
:100EDA00AF07003003180130B007003003180130A3
:100EEA00B107003003180130B207321C7D2F7E2F64
:100EFA009F2F2F08F9003008FA003108FB0032084A
:100F0A00FC000130FD007C0DFC0CFB0CFA0CF90C0A
:100F1A00FD0B882F7C08B2007B08B1007A08B0006C
:100F2A007908AF000130B3070318B40A0030B407D8
:100F3A009F2F9F2F3408803AFF0080307F02031DC5
:100F4A00A82FFF303302031CAB2FAC2FB72F7F30F3
:100F5A0083120313B2008030B1000030B0000030B9
:100F6A00AF00EE2F831203133408803AFF0080305B
:100F7A007F02031DC22F013033020318C52FC62F6B
:100F8A00D22F003083120313B2000030B1000030B8
:100F9A00B0000030AF00A801EE2F8312031333080C
:100FAA00F9007908AE00FF30AF05FF30B0057F3099
:100FBA00B1050030B2052E1CE32FE42FE62FB1173E
:100FCA00E62F2E08F9000310790CFA007A08B2000D
:100FDA00EE2F2808F9007908B2043208A300310874
:100FEA00A2003008A1002F08A000FB2F08008301EF
:060FFA000A128A113A29D7
:1011B200F10071080A128A15EA200A128A1508003B
:1011C2004130831203139F00C030831603139F0024
:1011D2000800F000EC28831203130C1EF128F228F9
:1011E200EC28F32870089900080000300A128A15CA
:1011F2002D210A128A1501300A128A152D210A128E
:101202008A15080083120313981C082909290D293D
:10121200181218160D290D298C1E102911290D29B5
:1012220012291A08142908008316031307138717B3
:101232008130990018151812831203139817831618
:101242000313981683120313181683160313181325
:101252008312031318130800F300831203130811F7
:1012620073080A128A1547210A128A158312031378
:1012720088151A30F200F830F100F10B3E29F20B1A
:101282003E2900008312031388110800F000701C2D
:101292004B294C2950298312031308165329831210
:1012A20003130812F01C56295729592988165A295E
:1012B2008812701D5D295E296029081761290813AB
:1012C200F01D642965296729881769298813692906
:1012D2000800F800F401F5017008F200F301720849
:1012E200F6007308F7007529781C782979297F2977
:1012F2007608F4070318F50A7708F507013003109A
:10130200F60DF70DFF3E031D80290310F80C780837
:10131200031D8C298D2975298E297508F100740801
:10132200F00093290800F201F30100307302323019
:1013320003197202031C9E299F29A129C929C929BF
:101342008312031306140630F1003030F000F00B64
:10135200A829F10BA82900008312031306107D307F
:10136200F100AB30F000F00BB429F10BB429B9292C
:101372000130F2070318F30A0030F307003073025A
:10138200323003197202031CC729C829A129C929AD
:101392000800F201F30100307302323003197202C5
:1013A200031CD429D529D729FF29FF298312031326
:1013B20006140F30F1004730F000F00BDE29F10B7C
:1013C200DE29E3298312031306107430F1009430EE
:1013D200F000F00BEA29F10BEA2900000130F207D4
:1013E2000318F30A0030F307003073023230031996
:1013F2007202031CFD29FE29D729FF290800F400E7
:1014020074080F39F1007108F2007408F039F10024
:101412007108F3008312031308157308F1000430F6
:101422000310F10CFF3E031D112A71080A128A15DE
:1014320047210A128A158312031388154230F100DC
:10144200F10B212A000083120313881172080A1279
:101452008A1547210A128A1583120313881542300E
:10146200F100F10B322A00008312031388110800E5
:101472007808790403193E2A3F2A742AFD01FD0ADD
:101482004E2A01300310F80DF90DFF3E031D432AC9
:101492000130FC007C08FD074E2AF91F512A522A0E
:1014A200422A542A542A79087B02031D5A2A7808B0
:1014B2007A02031C5D2A5E2A652A7808FA027908F4
:1014C200031CFB03FB02652A01300310F90CF80C24
:1014D200FF3E031D662A0130FD02031D712A722A96
:1014E200542A742A742A7B08F9007A08F800792AA7
:1014F2000800FA01FB01A02A7A087507F8007608AD
:10150200F7000318F70AFA1F872AF7037708F9008A
:10151200790883120313FF00780884000A168A11DF
:1015220000200A128A150A128A1500220A128A1546
:101532000130FA070318FB0A0030FB07A02A7A08D9
:101542007507F8007608F7000318F70AFA1FAA2AA7
:10155200F7037708F900790883120313FF0078086C
:1015620084000A168A1100200A128A15003A031D05
:10157200BB2ABC2A7D2ABD2A0800F501F6017008A3
:1015820071040319C52AC62A032BF701F70AD52AC3
:1015920001300310F00DF10DFF3E031DCA2A013088
:1015A200F4007408F707D52AF11FD82AD92AC92AC4
:1015B200DB2ADB2A01300310F50DF60DFF3E031D79
:1015C200DC2A71087302031DE82A70087202031CE8
:1015D200EB2AEC2AF42A7008F2027108031CF303C6
:1015E200F3027514F42A01300310F10CF00CFF3EE3
:1015F200031DF52A0130F702031D002B012BDB2A04
:10160200032B032B7608F1007508F000082B080065
:10161200F7007703031D0E2B0F2B322B74087F3E2E
:10162200F5007508FA007A08F50004300310F50C8D
:10163200FF3E031D172B7508F6007608F8007A089E
:101642000F39F5007508F90078080A128A152D215C
:101652000A128A1579080A128A152D210A128A1588
:101662005C2B02307706031D372B382B5C2B74085A
:10167200BF3EF5007508FA007A08F5000430031041
:10168200F50CFF3E031D402B7508F6007608F800A6
:101692007A080F39F5007508F90078080A128A15D8
:1016A2002D210A128A1579080A128A152D210A1289
:1016B2008A155C2B5C2B080000300A128A15472120
:1016C2000A128A158230F500DD30F400F40B672B24
:1016D200F50B672B6C2B03300A128A152D210A1287
:1016E2008A152130F5007630F400F40B762BF50BD9
:1016F200762B000003300A128A152D210A128A1550
:101702004830F5006C30F400F40B852BF50B852B7B
:10171200000003300A128A152D210A128A1502309E
:101722000A128A152D210A128A1502300A128A1506
:101732002D210A128A1508300A128A152D210A1241
:101742008A1500300A128A152D210A128A150C30C8
:101752000A128A152D210A128A1500300A128A15D8
:101762002D210A128A1506300A128A152D210A1213
:101772008A15080083120313A101FC1FC12BC22B7F
:10178200CA2BFB09FC09FB0A0319FC0AA101A10AE5
:10179200CA2BFA1FCD2BCE2BD42BF909FA09F90A41
:1017A2000319FA0AD42B79087A040319D92BDA2BF4
:1017B2000F2CA001A00AE92B01300310F90DFA0D3C
:1017C200FF3E031DDE2B0130FD007D08A007E92B43
:1017D200FA1FEC2BED2BDD2BEF2BEF2B7A087C0283
:1017E200031DF52B79087B02031CF82BF92B002C27
:1017F2007908FB027A08031CFC03FC02002C01306E
:101802000310FA0CF90CFF3E031D012C0130A0025B
:10181200031D0C2C0D2CEF2B0F2C0F2C2108031960
:10182200132C142C1A2CFB09FC09FB0A0319FC0AC1
:101832001A2C7C08FA007B08F9001F2C0800F6011C
:10184200F11F242C252C2D2CF009F109F00A031983
:10185200F10AF601F60A2D2CF31F302C312C3B2C09
:10186200F209F309F20A0319F30A0130F4007408C9
:10187200F6063B2CF701F801700871040319422C9B
:10188200432C802CF501F50A522C01300310F00D87
:10189200F10DFF3E031D472C0130F4007408F507DB
:1018A200522CF11F552C562C462C582C582C0130FA
:1018B2000310F70DF80DFF3E031D592C710873023A
:1018C200031D652C70087202031C682C692C712C94
:1018D2007008F2027108031CF303F3027714712CEF
:1018E20001300310F10CF00CFF3E031D722C01308D
:1018F200F502031D7D2C7E2C582C802C802C760822
:101902000319842C852C8B2CF709F809F70A031983
:10191200F80A8B2C7808F1007708F000902C080068
:10192200831203133508B9003608BA003708BB0022
:101932003808BC0003103B0D3C0DBD003D08BF0044
:101942003F08031DA52CA62CB02C0030B800003097
:10195200B7000030B6000030B5002C2D2C2D350814
:10196200B9003608BA003708BB003808BC001F307F
:101972000310BC0CBB0CBA0CB90CFF3E031DB92CF6
:101982003908BD003D08BE00B717FF30B505FF306E
:10199200B605FF30B7050030B8059630BF02BF1F4D
:1019A200D32CD42CF92C3F08803A973E0318DA2C1A
:1019B200DB2CE62C0030B8000030B7000030B60057
:1019C2000030B5002C2D2C2DE62C01300310B80C64
:1019D200B70CB60CB50CFF3E031DE72C0130B90065
:1019E2003908BF07031DF62CF72CE62C1C2D1C2DE5
:1019F20020303F02031CFE2CFF2C152D0030B800B6
:101A02000030B7000030B6000030B5002C2D2C2D70
:101A1200152D0130B9000310B50DB60DB70DB80D77
:101A2200B90B0C2D0130BF023F08031D192D1A2DD1
:101A32000A2D1C2D1C2D3E080319202D212D2C2D85
:101A4200B509B609B709B809B50A0319B60A0319DF
:101A5200B70A0319B80A080083120313A00020086A
:101A62000319342D352D492DF81F382D392D492DC7
:101A72007509A2007609A3007709A4007809A500D8
:101A8200A20A0319A30A0319A40A0319A50A512DCC
:101A92007808A5007708A4007608A3007508A200BC
:101AA2007808770476047504031D582D592D632D8B
:101AB2000030F8000030F7000030F6000030F5008A
:101AC200F02DF02D9630F9007908A100762D013025
:101AD200F9007908A10701300310A50CA40CA30C8E
:101AE200A20CFF3E031D6D2D762DFE302505031D34
:101AF2007B2D7C2D682D992D992D0130F9007908C7
:101B0200A1070130A207003003180130A3070030FB
:101B120003180130A407003003180130A507013073
:101B22000310A50CA40CA30CA20CFF3E031D912DC7
:101B3200FF302505031D9E2D9F2D7E2DAD2DAD2D34
:101B42000130A1020130F9000310A20DA30DA40D72
:101B5200A50DF90BA52DAD2DA41BB02DB12DB82DC2
:101B6200023021020318B62DB72DA12DB82D211850
:101B7200BB2DBC2DC42DFF30A205FF30A3057F3045
:101B8200A405FF30A5050310A10C2108F900FA01F4
:101B9200FB01FC0118300310F90DFA0DFB0DFC0DD1
:101BA200FF3E031DCC2D7908A2047A08A3047B080A
:101BB200A4047C08A50420080319E02DE12DE72DDB
:101BC200F81FE42DE52DE72DA517E72D2508F800D0
:101BD2002408F7002308F6002208F500F02D08007B
:101BE20077088039F800780883120313A400770875
:101BF200F8007807F9007908AB00F61F012E022ED3
:101C0200042E2B14042E2B080319082E092E1A2E2B
:101C12002B0A031D0D2E0E2E172E0030F70000305A
:101C2200F6000030F5000030F400172EF617F70129
:101C3200232E0030F7000030F6000030F5000030AF
:101C4200F400232E73088039F8007808A40673087C
:101C5200F8007807F9007908AC00F21F312E322E15
:101C6200342E2C14342E2C080319382E392E4A2ED9
:101C72002C0A031D3D2E3E2E472E0030F30000306D
:101C8200F2000030F1000030F000472EF217F301AD
:101C9200522E0030F3000030F2000030F10000302C
:101CA200F0007308720471047004031D592E5A2E39
:101CB200742E0030F7000030F6000030F5000030DE
:101CC200F4008030F6047F30F7042408F800780826
:101CD200F7047708F3007608F2007508F10074083B
:101CE200F000FF2FFF2F2B08031D782E792E8B2E4D
:101CF2000030F7000030F6000030F5000030F4004C
:101D02007708F3007608F2007508F1007408F00015
:101D1200FF2FFF2F2C08F800F901F809F909F80A3A
:101D22000319F90A2B087807FA0079080318790AC7
:101D3200FB007A087F3EA5007B080318013E003EA7
:101D4200A6007708A3007608A2007508A10074080F
:101D5200A0000030F7000030F6000030F50000303F
:101D6200F4000030AA000030A9000030A8000030C2
:101D7200A700AC01102F2C080319C02EC12EE32E90
:101D82000130F8000310A00DA10DA20DA30DF80B58
:101D9200C32E0130F8000310F40DF50DF60DF70D0A
:101DA200F80BCC2EAA1FD62ED72ED92E7414D92ECC
:101DB2000130F8000310A70DA80DA90DAA0DF80B0C
:101DC200DB2EE32E73082302031DF12E720822027A
:101DD200031DF12E71082102031DF12E700820024D
:101DE200031CF42EF52E0B2F2A177008A00271087F
:101DF200031C710FFD2EFE2EA1027208031C720F2E
:101E0200032F042FA2027308031C730F092F0A2F3A
:101E1200A3020B2F0130F8007808AC07102F1A30FC
:101E22002C02031C152F162FBC2E172F2308220459
:101E32002104200403191E2F1F2F412F2714412F85
:101E4200412F0130F8000310F40DF50DF60DF70DDA
:101E5200F80B242FAA1F2E2F2F2F312F7414312F5E
:101E62000130F8000310A70DA80DA90DAA0DF80B5B
:101E7200332FFF30A5070318A60AFF30A607412F0C
:101E8200F61F442F452F222F462FAC01AA1F4A2F9F
:101E92004B2F6B2FFF302705F800FF302805F90084
:101EA200FF302905FA007F302A05FB007B087A04FF
:101EB2007904780403195E2F5F2F622FAC01AC0AFC
:101EC2006B2F741C652F662F6B2FAC01AC0A6B2F26
:101ED2006B2F6B2F2C0803196F2F702FA32F01303C
:101EE200F407003003180130F50700300318013001
:101EF200F607003003180130F707771C812F822F75
:101F0200A32F7408F8007508F9007608FA0077081C
:101F1200FB000130FC007B0DFB0CFA0CF90CF80CF9
:101F2200FC0B8C2F7B08F7007A08F6007908F50085
:101F32007808F4000130A5070318A60A0030A607A6
:101F4200A32FA32F2608803AFF0080307F02031DB3
:101F5200AC2FFF302502031CAF2FB02FBF2FFF3055
:101F620083120313A5000030A6000030F7000030F2
:101F7200F6000030F5000030F400BF2F8312031387
:101F82002608803AFF0080307F02031DCA2F0130ED
:101F920025020318CD2FCE2FDB2F83120313A501A9
:101FA200A6010030F7000030F6000030F5000030E6
:101FB200F400A401831203132508F8007808AB008B
:101FC2002B1CE42FE52FE72FF617EB2F7F30F800BD
:101FD2007808F6052B08F8000310780CF900790848
:101FE200F7002408F8007808F7047708F300760869
:101FF200F2007508F1007408F000FF2F0800FF1BC3
:102002000A2883137F1883170008840A0319FF0A1A
:1020120008007F087F398A000408840A0319FF0A2E
:102022008200013400340A34003464340034E83469
:102032000334103427342A342A342A3444346F3493
:10204200623472346F3464346F3473346C34693490
:10205200213420344F3476346F3420346A3465347A
:1020620020346434723475346734693420347A34F9
:10207200613464346134743461346B3420346E34CA
:10208200613420346934733470346934743475348F
:102092002E3420345A346534683472346134203436
:1020A200533461346234693463342C342034383428
:1020B2003934303420342A342A342A3400340D346A
:1020C2004F345034433449344A34413434343A344A
:1020D20020344F346B3472346534743461346E346A
:1020E2006A346534203473346534723476346F3430
:1020F2006D346F3474346F34723461342034753417
:1021020020346F3462346A34653420347334743466
:10211200723461346E346534203433342034703494
:1021220075347434613400340D344D346F346C348E
:1021320069346D346F34203476346134733420342E
:102142006F346434613462346534723469347434A3
:10215200653420346F347034633469346A347534CE
:10216200203431342C34203432342C34203433347F
:10217200203469346C346934203434343A342034B1
:1021820000340D344F345034433449344A344134EA
:1021920033343A3420344934733470346934733408
:1021A200203470346F34723475346B3465342034B7
:1021B2006E34613420344C34433444342034643437
:1021C2006934733470346C3465346A347534203451
:1021D20000340D344F345034433449344A3441349A
:1021E20031343A34203449347334703469347334BA
:1021F20020347434723465346E34753474346E340D
:1022020065342034743465346D347034653472341A
:102212006134743475347234653400340D344F349F
:102222005034433449344A34413432343A34203419
:1022320049347334703469347334203474347234EE
:1022420065346E34753474346E346F3467342034CC
:102252007634723465346D3465346E3461340034EE
:10226200613420347A346134743469346D34203406
:1022720075342034643472347534673475342034E0
:1022820073347434723461346E34753420343334BC
:10229200203470347534743461342134003452344F
:1022A2006F3474346934723461346E346A34653430
:1022B200203473346534723476346F346D346F3451
:1022C20074346F34723461342034753420346A3497
:1022D200653464346E3475342C3400340D3449342E
:1022E2007A3461346234723461346C346934203447
:1022F20073347434653420346F3470346334693425
:102302006A347534203433342E340D340D340034B1
:102312006E346134203476346934723474347534F2
:1023220061346C346E346F346D34203474346534FB
:1023320072346D3469346E3461346C3475342134E2
:1023420000340D340D3449347A34613462347234D9
:1023520061346C3469342034733474346534203419
:102362006F347034633469346A34753420343134F0
:102372002E3400340D340D34543465346D347034DD
:1023820065347234613474347534723461343A347D
:10239200203400344F3476346F3420346A34653458
:1023A20020346F347034633469346A3461342034D5
:1023B20033340034543465346D34703465347234DB
:1023C2006134743475347234613400340D342A3417
:1023D2002A342A342A342A342A34003425346934FB
:0623E20000344334003416
:02400E007A3FF7
:00000001FF
