:020000040000FA
:100000000A128A11EE2F00308A000408840A82073F
:1000100000345634723469346A3465346D3465346E
:1000200020346A3465342034763461346E342034BC
:1000300064346F347A3476346F346C346A346534B3
:100040006E346934683420346734723461346E3409
:100050006934633461342134003456347234693481
:100060006A3465346D34653420346A346534203440
:1000700070346F34643420346B346F346E347434C1
:1000800072346F346C346F346D3421340034563430
:10009000723469346A3465346D34653420346A34BA
:1000A000653420346E346134203467347234613402
:1000B0006E3469346334693421340034303432347A
:1000C0003A34313435340034303430343A34353421
:1000D00039340034303431343A343534393400343E
:1008AE003F3406345B344F3466346D347D34073454
:1008BE007F346F3400300A128A1181240A128A1191
:1008CE0001300A128A1181240A128A1108007E0848
:1008DE008A007F0882000A128A116E240A128A1177
:1008EE008000840A04087D0603190034FF0A0319E8
:1008FE00FE0A722CF30083120313081173080A12F6
:10090E008A119B240A128A118312031388151A3036
:10091E00F200F830F100F10B922CF20B922C000049
:10092E008312031388110800F000701C9F2CA02C5A
:10093E00A42C831203130816A72C83120313081278
:10094E00F01CAA2CAB2CAD2C8816AE2C8812701D68
:10095E00B12CB22CB42C0817B52C0813F01DB82CE2
:10096E00B92CBB2C8817BD2C8813BD2C0800F700A2
:10097E00F501F601D62C7508770784000A128A1144
:10098E0003200A128A110A128A11E5240A128A1108
:10099E000130F5070318F60A0030F607D62C750855
:1009AE00770784000A128A1103200A128A11003A6C
:1009BE00031DE22CE32CC22CE42C0800F400740876
:1009CE000F39F1007108F2007408F039F100710866
:1009DE00F3008312031308157308F100043003109B
:1009EE00F10CFF3E031DF62C71080A128A119B248E
:1009FE000A128A118312031388154230F100F10B8B
:100A0E00062D000083120313881172080A128A1130
:100A1E009B240A128A118312031388154230F100A7
:100A2E00F10B172D00008312031388110800F70035
:100A3E007703031D232D242D472D74087F3EF500CB
:100A4E007508FA007A08F50004300310F50CFF3E25
:100A5E00031D2C2D7508F6007608F8007A080F395C
:100A6E00F5007508F90078080A128A1181240A1215
:100A7E008A1179080A128A1181240A128A11712D9B
:100A8E0002307706031D4C2D4D2D712D7408BF3E7F
:100A9E00F5007508FA007A08F50004300310F50C1D
:100AAE00FF3E031D552D7508F6007608F8007A08EE
:100ABE000F39F5007508F90078080A128A11812499
:100ACE000A128A1179080A128A1181240A128A11CD
:100ADE00712D712D080000300A128A119B240A1202
:100AEE008A118230F500DD30F400F40B7C2DF50B0D
:100AFE007C2D812D03300A128A1181240A128A114B
:100B0E002130F5007630F400F40B8B2DF50B8B2D88
:100B1E00000003300A128A1181240A128A11483009
:100B2E00F5006C30F400F40B9A2DF50B9A2D0000A5
:100B3E0003300A128A1181240A128A1102300A1213
:100B4E008A1181240A128A1102300A128A11812412
:100B5E000A128A1108300A128A1181240A128A1185
:100B6E0000300A128A1181240A128A110C300A12DC
:100B7E008A1181240A128A1100300A128A118124E4
:100B8E000A128A1106300A128A1181240A128A1157
:100B9E000800831203138601831603138601831242
:100BAE00031387018316031387018312031388012E
:100BBE008316031388010A128A1172250A128A11EA
:100BCE000A128A1161240A128A11243084003830E4
:100BDE0083120313A0000408A1000A30A20020080B
:100BEE00840083130008A300A00A210884002308B0
:100BFE008000A10AA20BF62DB001B1013108803A96
:100C0E00FF0080307F02031D0E2E06303002031CC3
:100C1E00112E122E142EEB2FEB2F83120313B20173
:100C2E00B3013308803AFF0080307F02031D212E6E
:100C3E0006303202031C242E252E272ED52FD52F1B
:100C4E0083120313B401B5013508803AFF008030DA
:100C5E007F02031D342E06303402031C372E382E2D
:100C6E003A2EBF2FBF2F83120313B601B7013708D9
:100C7E00803AFF0080307F02031D472E0A30360275
:100C8E00031C4A2E4B2E4D2EA92FA92F8312031370
:100C9E00AE01AF012F08803AFF0080307F02031DA6
:100CAE005A2E0A302E02031C5D2E5E2E602E932FBE
:100CBE00932F8312031330083104031D672E682E01
:100CCE009D2E32083304031D6D2E6E2E9D2E053083
:100CDE0034063504031D742E752E9D2E09303606EE
:100CEE003704031D7B2E7C2E9D2E071687120713AD
:100CFE00F401F40A01300A128A111E250A128A1111
:100D0E005C300A128A11BE240A128A11F401F40A06
:100D1E0002300A128A111E250A128A1125300A1271
:100D2E008A11BE240A128A11932F212F83120313C4
:100D3E0030083104031DA42EA52EDF2E32033304FA
:100D4E00031DAA2EAB2EDF2E053034063504031DEF
:100D5E00B12EB22EDF2E093036063704031DB82E03
:100D6E00B92EDF2E8716071207130A128A11612475
:100D7E000A128A11F401F40A01300A128A111E2590
:100D8E000A128A1162300A128A11BE240A128A11BC
:100D9E00F401F40A02300A128A111E250A128A116F
:100DAE003F300A128A11BE240A128A11932F212F64
:100DBE008312031330083104031DE62EE72E212F74
:100DCE00023032063304031DED2EEE2E212F340396
:100DDE003504031DF32EF42E212F0530360637046D
:100DEE00031DFA2EFB2E212F0717071287120A1248
:100DFE008A1161240A128A11F401F40A01300A12CE
:100E0E008A111E250A128A1156300A128A11BE2420
:100E1E000A128A11F401F40A02300A128A111E25EE
:100E2E000A128A1101300A128A11BE240A128A117C
:100E3E00932F212F83120313871407158715360856
:100E4E00243E84008313000886000710213083128D
:100E5E000313A1007530A000A00B332FA10B332F6D
:100E6E00382F831203130714071587153408243EF1
:100E7E008400831300088600871021308312031329
:100E8E00A1007530A000A00B4A2FA10B4A2F4F2FA7
:100E9E00831203130714871487153208243E840027
:100EAE008313000886000711213083120313A1005B
:100EBE007530A000A00B612FA10B612F662F83123E
:100ECE0003130714871407153008243E8400831378
:100EDE00000886008711213083120313A10075309C
:100EEE00A000A00B782FA10B782F7D2F013083123D
:100EFE000313AE070318AF0A0030AF072F08803A6E
:100F0E00FF0080307F02031D8E2F0A302E02031C3D
:100F1E00912F922F602E932F013083120313B60759
:100F2E000318B70A0030B7073708803AFF00803041
:100F3E007F02031DA42F0A303602031CA72FA82FF1
:100F4E004D2EA92F013083120313B4070318B50ACF
:100F5E000030B5073508803AFF0080307F02031D50
:100F6E00BA2F06303402031CBD2FBE2F3A2EBF2FD0
:100F7E00013083120313B2070318B30A0030B3070C
:100F8E003308803AFF0080307F02031DD02F0630D9
:100F9E003202031CD32FD42F272ED52F01308312CC
:100FAE000313B0070318B10A0030B1073108803AB5
:100FBE00FF0080307F02031DE62F06303002031C37
:100FCE00E92FEA2F142EEB2F0A128A110028831311
:100FDE004230FD000430FE005730FF0038308400F0
:100FEE000A128A1172240A128A1183010A128A11B4
:020FFE00D02DF4
:02400E007A3FF7
:00000001FF
