:020000040000FA
:100000000A128A11EE2FFF0000308A007F08820753
:1000100008280A128A110C2871080A128A15002071
:100020000A128A110800F7007703031D18281928FF
:100030003C2874087F3EF5007508FA007A08F50040
:1000400004300310F50CFF3E031D21287508F6004F
:100050007608F8007A080F39F5007508F900780875
:100060000A168A15CB270A128A1179080A168A15E8
:10007000CB270A128A11662802307706031D412811
:10008000422866287408BF3EF5007508FA007A0811
:10009000F50004300310F50CFF3E031D4A287508D7
:1000A000F6007608F8007A080F39F5007508F900AF
:1000B00078080A168A15CB270A128A1179080A16B7
:1000C0008A15CB270A128A11662866280800F800CC
:1000D000780803196C286D288128F31F702871286F
:1000E00081287009FA007109FB007209FC0073098C
:1000F000FD00FA0A0319FB0A0319FC0A0319FD0A99
:1001000089287308FD007208FC007108FB00700864
:10011000FA007308720471047004031D902891287A
:100120009B280030F3000030F2000030F100003076
:10013000F000282928299630F4007408F900AE2828
:100140000130F4007408F90701300310FD0CFC0CB9
:10015000FB0CFA0CFF3E031DA528AE28FE307D05E2
:10016000031DB328B428A028D128D1280130F400D9
:100170007408F9070130FA07003003180130FB0753
:10018000003003180130FC07003003180130FD0770
:1001900001300310FD0CFC0CFB0CFA0CFF3E031DA0
:1001A000C928FF307D05031DD628D728B628E528A5
:1001B000E5280130F9020130F4000310FA0DFB0DBF
:1001C000FC0DFD0DF40BDD28E528FC1BE828E928D3
:1001D000F028023079020318EE28EF28D928F028F9
:1001E0007918F328F428FC28FF30FA05FF30FB05C6
:1001F0007F30FC05FF30FD050310F90C7908F40091
:10020000F501F601F70118300310F40DF50DF60DA8
:10021000F70DFF3E031D04297408FA047508FB045A
:100220007608FC047708FD047808031918291929B1
:100230001F29F31F1C291D291F29FD171F297D08B0
:10024000F3007C08F2007B08F1007A08F00028290E
:100250000800A93083120313AD009830AE000A16CF
:100260008A15E5270A128A11F401F40A01300A12EC
:100270008A1113200A128A11B730F5009930F6005E
:100280000A168A11E8200A128A11273083120313F2
:10029000AD009930AE000A168A15E5270A128A11B8
:1002A0000A168A157B270A128A1183120313C000CB
:1002B000C101400883160317AE00831203134108DF
:1002C00083160317AF002E080A128A1500200A129F
:1002D0008A11831603172E08D03E9E002F0803189C
:1002E000013EFF3E9F0083120313871407158715F5
:1002F000831603171E08903E84008317000883129C
:100300000313860007101130AD009930AE000A16B5
:100310008A15E5270A128A110A168A157B270A12FE
:100320008A1183120313C000C1014008831603170A
:10033000B00083120313410883160317B10030087D
:100340000A128A1500200A128A1183160317300830
:10035000D03EA00031080318013EFF3EA1008312E9
:100360000313071407158715831603172008903EFB
:100370008400831700088312031386008710073058
:1003800083120313C2005830C1005930C000C00BA3
:10039000C729C10BC729C20BC72983160317200918
:1003A00083120313C000831603172109831203135A
:1003B000C100C00A0319C10A831603171E0883125D
:1003C0000313400783160317BE001F0803181F0AF4
:1003D00083120313410783160317BF00BF1FF129C0
:1003E000F229632A560883120313C0004008EA006A
:1003F0000A30F0000030F100831603173F08F300C5
:100400003E08F2000A168A1138220A128A1171086F
:1004100083160313E1007008E0008312031307142E
:10042000871487158316031360086A3E84008313BC
:100430000008831203138600071107308312031389
:10044000C2005830C1005930C000C00B252AC10B72
:10045000252AC20B252A831603173E09831203138C
:10046000C000831603173F0983120313C100C00A9B
:100470000319C10A400883160313E2008312031311
:10048000410883160313E300831203130714871430
:100490000715831603136208903E84008317000833
:1004A0008312031386008711073083120313C200DF
:1004B0005830C1005930C000C00B5C2AC10B5C2A07
:1004C000C20B5C2A822A8312031307148714871530
:1004D000831603173E08903E84008317000883129A
:1004E000031386000711073083120313C20058302C
:1004F000C1005930C000C00B7B2AC10B7B2AC20B44
:100500007B2A822ADD3083120313AD009930AE00BE
:10051000831603173F0883120313B00083160317D3
:100520003E0883120313AF00A0300A168A1101207F
:100530000A128A11913083120313AD009930AE0074
:100540000A168A15E5270A128A11A03083120313AE
:10055000AD000030AE000A168A15E5270A128A118E
:10056000E03083120313AD009930AE000A168A15ED
:10057000E5270A128A11F401F40A02300A128A11DC
:1005800013200A128A11831603172E080A168A11DD
:100590006E200A128A11033083120313C000400830
:1005A000F40002300A128A1113200A128A112D3027
:1005B0000A168A116E200A128A110530831203135B
:1005C000C0004008F40002300A128A1113200A12F7
:1005D0008A118316031730080A168A116E200A1230
:1005E0008A11073083120313C0004008F400023060
:1005F0000A128A1113200A128A113D300A168A1132
:100600006E200A128A11093083120313C0004008B9
:10061000F40002300A128A1113200A128A11A03043
:10062000F5000030F6000A168A11E8200A128A1135
:100630000D3083120313C200AF30C100B530C000CB
:10064000C00B202BC10B202BC20B202B272B0A16F3
:100650008A156E270A128A11DC2FF83083120313D1
:10066000AD009830AE000A168A15E5270A128A11E5
:10067000F401F40A01300A128A1113200A128A11B5
:10068000CF30F5009930F6000A168A11E8200A12D8
:100690008A11273083120313AD009930AE000A1679
:1006A0008A15E5270A128A110A168A157B270A126B
:1006B0008A1183120313C000C10140088316031777
:1006C000B20083120313410883160317B3003208E4
:1006D0000A128A1500200A128A118316031732089B
:1006E000D03EA20033080318013EFF3EA300831250
:1006F0000313871407158715831603172208903EE6
:10070000840083170008831203138600071011303A
:10071000AD009930AE000A168A15E5270A128A1133
:100720000A168A157B270A128A1183120313C00046
:10073000C101400883160317B40083120313410854
:1007400083160317B50034080A128A1500200A120E
:100750008A11831603173408D03EA4003508031805
:10076000013EFF3EA50083120313071407158715EA
:10077000831603172408903E840083170008831211
:10078000031386008710073083120313C20058300A
:10079000C1005930C000C00BCB2BC10BCB2BC20BFF
:1007A000CB2B831603172308F1002208F00025083D
:1007B000F3002408F2000A168A1146200A128A1150
:1007C000710883160317C1007008C0004108803A01
:1007D000FF0080307F02031DEF2B0A304002031818
:1007E000F22BF32B122C8312031307148714871593
:1007F000831603174008903E840083170008831275
:10080000031386000711073083120313C200583008
:10081000C1005930C000C00B0B2CC10B0B2CC20BFC
:100820000B2C792C0A30F0000030F10083160317EE
:100830004108F3004008F2000A168A1138220A1211
:100840008A11710883160313E5007008E40083120F
:100850000313071487148715831603136408903E47
:1008600084008317000883120313860007110730E2
:1008700083120313C2005830C1005930C000C00BAE
:100880003F2CC10B3F2CC20B3F2C0A30F000003034
:10089000F100831603174108F3004008F2000A161E
:1008A0008A11D5210A128A11710883160313E700F1
:1008B0007008E600831203130714871407158316C4
:1008C00003136608903E8400831700088312031305
:1008D00086008711073083120313C2005830C1000D
:1008E0005930C000C00B722CC10B722CC20B722C81
:1008F000792CDD3083120313AD009930AE008316DE
:100900000317410883120313B0008316031740082E
:1009100083120313AF00B4300A168A1101200A12A1
:100920008A114C3083120313AD009930AE000A16C1
:100930008A15E5270A128A11B43083120313AD0019
:100940000030AE000A168A15E5270A128A11E03037
:1009500083120313AD009930AE000A168A15E527FD
:100960000A128A11F401F40A02300A128A111320C1
:100970000A128A118316031732080A168A116E208A
:100980000A128A11033083120313C0004008F400D6
:1009900002300A128A1113200A128A112A300A160A
:1009A0008A116E200A128A11053083120313C000C7
:1009B0004008F40002300A128A1113200A128A1128
:1009C0008316031734080A168A116E200A128A1138
:1009D000073083120313C0004008F40002300A12EB
:1009E0008A1113200A128A113D300A168A116E20CC
:1009F0000A128A11093083120313C0004008F40060
:100A000002300A128A1113200A128A11B430F5003A
:100A10000030F6000A168A11E8200A128A110D30F9
:100A200083120313C200AF30C100B530C000C00B49
:100A3000172DC10B172DC20B172D1E2D0A168A1547
:100A40006E270A128A11DC2FC43083120313AD0003
:100A50009830AE000A168A15E5270A128A11F401A9
:100A6000F40A01300A128A1113200A128A11843002
:100A7000F5009930F6000A168A11E8200A128A1148
:100A8000273083120313AD009930AE000A168A1581
:100A9000E5270A128A110A168A157B270A128A117B
:100AA00083120313C000C101400883160317B80066
:100AB00083120313410883160317B90038080A127A
:100AC0008A1500200A128A11831603173808D03EAF
:100AD00083160313E8008316031739080318013E31
:100AE000FF3E83160313E900C23083120313A300F1
:100AF0004030A2000030A1000030A0008316031790
:100B00003808F0003908F1000030F11BFF30F20026
:100B1000F30001300A128A1167200A128A11730841
:100B200083120313A7007208A6007108A5007008BD
:100B3000A4000A128A15CF210A128A118312031304
:100B40002308E5002208E4002108E3002008E20071
:100B5000871407158715831603136808903E8400D1
:100B60008317000883120313860007101130AD00AD
:100B70009930AE000A168A15E5270A128A110A165C
:100B80008A157B270A128A1183120313C000C10140
:100B9000400883160317BA00831203134108831613
:100BA0000317BB003A080A128A1500200A128A119C
:100BB000831603173A08D03E83160313EA00831600
:100BC00003173B080318013EFF3E83160313EB0097
:100BD000C23083120313A3004030A2000030A100F2
:100BE0000030A000831603173A08F0003B08F1001C
:100BF0000030F11BFF30F200F30001300A128A11BD
:100C000067200A128A11730883120313A70072085F
:100C1000A6007108A5007008A4000A128A15CF2149
:100C20000A128A11831203132308E9002208E8003C
:100C30002108E7002008E60007140715871583162A
:100C400003136A08903E840083170008831203137D
:100C500086008710073083120313C2005830C1008A
:100C60005930C000C00B322EC10B322EC20B322EB7
:100C7000831203136908F3006808F2006708F100A3
:100C80006608F0006508F7006408F6006308F500E0
:100C90006208F4000A168A1145230A128A117308A1
:100CA00083160313EF007208EE007108ED00700860
:100CB000EC006F0883120313B800831603136E0849
:100CC00083120313B700831603136D0883120313F3
:100CD000B600831603136C0883120313B5000A16BB
:100CE0008A11A9220A128A11831203133608831665
:100CF0000317A70083120313350883160317A600F2
:100D0000831603136F0883120313A70083160313BC
:100D10006E0883120313A600831603136D08831253
:100D20000313A500831603136C0883120313A40096
:100D30004130A3002030A2000030A1000030A0000C
:100D40000A128A158B240A128A11831203132308AC
:100D5000B8002208B7002108B6002008B5000A161E
:100D60008A11A9220A128A118312031336088316E4
:100D70000317B70083120313350883160317B60051
:100D80000A30F0000030F1003708F3003608F200B6
:100D90000A168A11D5210A128A11710883160317BF
:100DA000B7007008B6008312031307148714871561
:100DB000831603172608443E840083130008831219
:100DC000031386000711073083120313C200583043
:100DD000C1005930C000C00BEB2EC10BEB2EC20B73
:100DE000EB2E8312031307148714071583160317BA
:100DF0003608903E84008317000883120313860090
:100E00008711073083120313C2005830C1005930D4
:100E1000C000C00B092FC10B092FC20B092FDA30FC
:100E200083120313AD009930AE0083160317270811
:100E300083120313B00083160317260883120313CB
:100E4000AF0083160317370883120313B20083160B
:100E50000317360883120313B100C8300A168A112B
:100E600001200A128A115A3083120313AD009930FF
:100E7000AE000A168A15E5270A128A11C8308312B5
:100E80000313AD000030AE000A168A15E5270A12DA
:100E90008A11E03083120313AD009930AE000A16B8
:100EA0008A15E5270A128A11F401F40A02300A129F
:100EB0008A1113200A128A118316031738080A169A
:100EC0008A116E200A128A11033083120313C000A4
:100ED0004008F40002300A128A1113200A128A1103
:100EE0002F300A168A116E200A128A1105308312D9
:100EF0000313C0004008F40002300A128A111320C4
:100F00000A128A11831603173A080A168A116E20EC
:100F10000A128A11073083120313C0004008F4003C
:100F200002300A128A1113200A128A113D300A1661
:100F30008A116E200A128A11093083120313C0002D
:100F40004008F40002300A128A1113200A128A1192
:100F5000C830F5000030F6000A168A11E8200A129F
:100F60008A110D3083120313C200AF30C100B530B7
:100F7000C000C00BB92FC10BB92FC20BB92FC02FA6
:100F80000A168A156E270A128A11DC2FDC2F8316A7
:100F900003172908003A0319CE2FDC2F2808313A0D
:100FA0000319EB2F033A03192929013A03192D2BB1
:100FB000073A0319242DDC2F053083160317280662
:100FC0002904031DE42FE72F0A168A119E2DE82F0E
:100FD0000A128A1100280A168A11122E8317D73096
:100FE000FD001F30FE00A030FF00C23084000A1652
:100FF0008A1591270A128A1183010A168A11542D23
:10100000F0000228831203130C1E07280828022868
:101010000928700899000800F800F401F50170082B
:10102000F200F3017208F6007308F7001728781C25
:101030001A281B2821287608F4070318F50A7708D0
:10104000F50701300310F60DF70DFF3E031D2228B2
:101050000310F80C7808031D2E282F281728302895
:101060007508F1007408F000352808008312031396
:10107000AC00AF2925302B0603193F2840286A28E9
:1010800041282C0A840083130008031948284928A2
:1010900056282B08A3002308F1002C0A840000081E
:1010A0000A128A1103200A128A15AF298312031328
:1010B0002B08A3002C088400831300088400230855
:1010C00080000130A3002C08840023088007AF298A
:1010D000AF29AF29A7019A28CB29BD28BD287028A0
:1010E0002C0A8400831300080319772878288528A0
:1010F0002B08A3002308F1002C0A840000080A1220
:101100008A1103200A128A15AF29831203132B08B0
:10111000A3002C08840083130008840023088000A7
:101120000130A3002C08840023088007AF29AF29D1
:10113000AF29BD282108A4002008A300A00A031994
:10114000A10A2408FF00230884000A168A1500203B
:101150000A128A15AB00A500A6012608003A031959
:10116000B22870282508003A0319CB29643A0319DC
:10117000BD280D3A0319BD28702822088400831366
:101180000008A30002308007230884000008A9009B
:10119000840A0008AA00AA1FCE28CF28D928033025
:1011A000A3002308A704A909AA09A90A0319AA0ADE
:1011B000D928AB01AB0A05302B06031DE028E12836
:1011C000E3280F290F292B08A3002307123E8400D0
:1011D00098300318013EFF000A168A1500200A12F3
:1011E0008A15A4000A168A1500200A128A15A5007D
:1011F00025082A02031DFE282408290203180129B4
:10120000022904290F290F290130A3002308AB0765
:1012100005302B06031D0D290E29E3280F29270869
:1012200003390319142915293F2916292C0A84008A
:101230008313000803191D291E292B292D30A30013
:101240002308F1002C0A840000080A128A110320E6
:101250000A128A153F292D3083120313A3002C088C
:101260008400831300088400230880000130A30059
:101270002C088400230880073F293F293F29831237
:1012800003132B08A3002308A800A2290A30F800A2
:101290000030F9002808A3002307123E840098308C
:1012A0000318013EFF000A168A1500200A128A154B
:1012B000F0000A168A1500200A128A15F1002A0881
:1012C000F3002908F2000A168A112C210A128A1545
:1012D0007108FB007008FA000A168A11A7200A128A
:1012E0008A157808303E83120313A4002408AB004B
:1012F00079292C0A84008313000803198029812985
:101300008E292B08A3002308F1002C0A8400000872
:101310000A128A1103200A128A15A22983120313C2
:101320002B08A3002C0884008313000884002308E2
:1013300080000130A3002C08840023088007A22924
:10134000A229A229FF3083120313A3002308A807B0
:10135000280A031DAC29AD294629AF29AF298312DC
:1013600003132108A4002008A300A00A0319A10A5E
:101370002408FF00230884000A168A1500200A1298
:101380008A15A5002508AB002B08031DC829C9290B
:101390003A28CB29CB29A001A101CE29080083122C
:1013A000031323088039A8002808B4002308A800E4
:1013B0002807A9002908B600A21FDF29E029E22991
:1013C0003614E22936080319E629E729F829360AEE
:1013D000031DEB29EC29F5290030A3000030A20001
:1013E0000030A1000030A000F529A217A301012AB6
:1013F0000030A3000030A2000030A1000030A000A7
:10140000012A27088039A8002808B50035083406C5
:1014100003190B2A0C2A0E2A34170E2A2708A800B3
:101420002807A9002908B500A61F172A182A1A2A72
:1014300035141A2A350803191E2A1F2A302A350A9C
:10144000031D232A242A2D2A0030A7000030A600DD
:101450000030A5000030A4002D2AA617A701382AC5
:101460000030A7000030A6000030A5000030A40026
:101470003608350203183D2A3E2A842A341F412AA1
:10148000422A472A8030A8002808B406472A36088E
:10149000A8002808B7003508A8002808B6003708B3
:1014A000A8002808B5002008A8002808B7002408CC
:1014B000A8002808A0003708A8002808A4002108D0
:1014C000A8002808B7002508A8002808A1003708A8
:1014D000A8002808A5002208A8002808B7002608A8
:1014E000A8002808A2003708A8002808A60023089A
:1014F000A8002808B7002708A8002808A300370874
:10150000A8002808A700842AB7013608A800A90166
:10151000A809A909A80A0319A90A35082807AA00D1
:1015200029080318290AAB002B08803AFF008030F5
:101530007F02031D9D2A1A302A02031CA02AA12A19
:10154000E22A831203132308220421042004031D2A
:10155000AA2AAC2A0130AD2A0030A8002808B7001A
:101560000030A3000030A2000030A1000030A00035
:101570003508A8002808B600EB2AE22A371CC12A41
:10158000C22ACB2A3708A8000310280C0138A9006A
:101590002908B700CE2A0310B70CCE2A201CD12A66
:1015A000D22AD42AB717D42A0130A800230DA30CBD
:1015B000A20CA10CA00CA80BD62A0130A800280868
:1015C000B607E22A8312031335083602031CE92A00
:1015D000EA2ABE2AEB2A341BEE2AEF2A3E2B3608D3
:1015E000031DF32AF42AFE2A0030A3000030A200D3
:1015F0000030A1000030A0008A2C8A2C2408A0070B
:10160000250803110318013E0319072BA10726081B
:1016100003110318013E03190E2BA207270803111B
:101620000318013E0319152BA307231C182B192B94
:10163000072C371C1C2B1D2B262B3708A80003104A
:10164000280C0138A9002908B700292B0310B70C72
:10165000292B201C2C2B2D2B2F2BB7172F2B013098
:10166000A800230DA30CA20CA10CA00CA80B312BDD
:101670000130A8002808B607072C072C2308803A59
:10168000FF002708803A7F02031D502B2608220204
:10169000031D502B25082102031D502B2408200276
:1016A0000318532B542BBA2BFF30A800FF30A9008E
:1016B000FF30AA00FF30AB002408AC002508AD00C5
:1016C0002608AE002708AF002009B0002109B100AC
:1016D0002209B2002309B300B00A0319B10A0319A1
:1016E000B20A0319B30A3008AC0731080318310FE6
:1016F0007A2B7B2BAD0732080318320F802B812BFE
:10170000AE0733080318330AAF072C08A8072D08C3
:1017100003182D0F8C2B8D2BA9072E0803182E0FC5
:10172000922B932BAA072F0803182F0AAB072B081D
:10173000A3002A08A2002908A1002808A0008030E0
:10174000A8002808B406B709B70A3708031DA92B53
:10175000AA2BC82B0130A007003003180130A107C5
:10176000003003180130A207003003180130A3072E
:10177000C82BC82B2408A0022508031C250FA10292
:101780002608031C260FA2022708031C270FA3020A
:101790002308220421042004031DCF2BD02B012C6D
:1017A0003708031DD42BD52B012C0030A3000030AB
:1017B000A2000030A1000030A0008A2C8A2C012C4D
:1017C0000130A8000310A00DA10DA20DA30DA80BC0
:1017D000E22BB71FEC2BED2BEE2B2014371CF12B3B
:1017E000F22BF52B0314B70DF82B0310B70DF82BC4
:1017F00036080319FC2BFD2B012C0130B602012CFD
:10180000012CA21F042C052CE02B072C072CB50162
:10181000B71F0B2C0C2C1E2C37087F390319112CE9
:10182000122C152CB501B50A1E2C201C182C192CB5
:101830001E2CB501B50A1E2C1E2C1E2C35080319B2
:10184000222C232C592C0130A00700300318013022
:10185000A107003003180130A2070030031801303F
:10186000A307231C342C352C592C2008A800210850
:10187000A9002208AA002308AB000130AC002B0D00
:10188000AB0CAA0CA90CA80CAC0B3F2C2B08A3008A
:101890002A08A2002908A1002808A000360A031976
:1018A000522C532C592C0130A8002808B607592C6B
:1018B000592C360A03195D2C5E2C642C3608031D46
:1018C000622C632C742C642C0030A3000030A20026
:1018D0000030A1000030A0003608031D702C712CD0
:1018E000742CB401742C742C361C772C782C7A2C24
:1018F000A2177E2C7F30A8002808A2053608A80071
:101900000310280CA9002908A300B41F882C892CD7
:101910008A2CA31708008312031323088039F900C7
:101920007908A8002308F9007907FA007A08AE00C0
:10193000A21F9B2C9C2C9E2C2E149E2C2E0803192F
:10194000A22CA32CB32C2E0A031DA72CA82CB12C3F
:101950000030A3000030A2000030A1000030A00041
:10196000B12CA217BC2C0030A3000030A200003024
:10197000A1000030A000BC2C27088039F9007908AC
:10198000A8062708F9007907FA007A08AD00A61F13
:10199000CA2CCB2CCD2C2D14CD2C2D080319D12CD9
:1019A000D22CE22C2D0A031DD62CD72CE02C003093
:1019B000A7000030A6000030A5000030A400E02CF5
:1019C000A617EB2C0030A7000030A6000030A500C1
:1019D0000030A400EB2C2D080319EF2CF02CF62C72
:1019E0002E08031DF42CF52C002DF62C0030A3003E
:1019F0000030A2000030A1000030A000FF2FFF2F18
:101A00002008F9007908F00026080A128A150C202F
:101A10000A128A15710883120313B4007008B30008
:101A20003308F900FA01FB01FC017C08AC007B08DB
:101A3000AB007A08AA007908A9003408F900FA0175
:101A4000FB01FC017C08B2007B08B1007A08B00001
:101A50007908AF002108F9007908F00025080A127A
:101A60008A150C200A128A15710883120313B40018
:101A70007008B3003308F900FA01FB01FC01790892
:101A8000A9077A0803110318013E0319482DAA0774
:101A90007B0803110318013E03194F2DAB077C0887
:101AA00003110318013E0319562DAC073408F90041
:101AB000FA01FB01FC017908AF077A08031103184A
:101AC000013E0319642DB0077B0803110318013E82
:101AD00003196B2DB1077C0803110318013E03198C
:101AE000722DB2072208F9007908F00024080A12C2
:101AF0008A150C200A128A15710883120313B40088
:101B00007008B3003308F900FA01FB01FC01790801
:101B1000A9077A0803110318013E0319902DAA079B
:101B20007B0803110318013E0319972DAB077C08AE
:101B300003110318013E03199E2DAC073408F90068
:101B4000FA01FB01FC017908AF077A0803110318B9
:101B5000013E0319AC2DB0077B0803110318013EA9
:101B60000319B32DB1077C0803110318013E0319B3
:101B7000BA2DB2070830F9000310A90DAA0DAB0D5C
:101B8000AC0DF90BBC2D2108F9007908F0002408F0
:101B90000A128A150C200A128A157108831203137F
:101BA000B4007008B3003308F9003408FA00FB01F0
:101BB000FC017908A9077A0803110318013E0319EB
:101BC000E22DAA077B0803110318013E0319E92D32
:101BD000AB077C0803110318013E0319F02DAC0775
:101BE0002008F9007908F00025080A128A150C204F
:101BF0000A128A15710883120313B4007008B30027
:101C00003308F9003408FA00FB01FC017908A90740
:101C10007A0803110318013E03190F2EAA077B0847
:101C200003110318013E0319162EAB077C0803119C
:101C30000318013E03191D2EAC070830F9000310EC
:101C4000A90DAA0DAB0DAC0DF90B1F2E2008F90044
:101C50007908F00024080A128A150C200A128A1545
:101C6000710883120313B4007008B3003308F9003D
:101C70003408FA00FB01FC017908A9077A0803116E
:101C80000318013E0319452EAA077B080311031808
:101C9000013E03194C2EAB077C0803110318013ECB
:101CA0000319532EAC072108F9007908F000260823
:101CB0000A128A150C200A128A157108831203135E
:101CC000B4007008B3003308F9003408FA00FB01CF
:101CD000FC017908AF077A0803110318013E0319C4
:101CE000722EB0077B0803110318013E0319792EE9
:101CF000B1077C0803110318013E0319802EB207B7
:101D00002208F9007908F00025080A128A150C202B
:101D10000A128A15710883120313B4007008B30005
:101D20003308F9003408FA00FB01FC017908AF0719
:101D30007A0803110318013E03199F2EB0077B0890
:101D400003110318013E0319A62EB1077C080311E5
:101D50000318013E0319AD2EB2072208F9007908D5
:101D6000F00026080A128A150C200A128A1571083A
:101D700083120313B4007008B3003308F900340869
:101D8000FA00FB01FC0108300310F90DFA0DFB0D00
:101D9000FC0DFF3E031DC42E7908AF077A0803111E
:101DA0000318013E0319D52EB0077B080311031851
:101DB000013E0319DC2EB1077C0803110318013E14
:101DC0000319E32EB2072908F9002A08FA002B08A4
:101DD000FB002C08FC0018300310FC0CFB0CFA0C68
:101DE000F90CFF3E031DEC2E7908AF077A080311AA
:101DF0000318013E0319FD2EB0077B0803110318D9
:101E0000013E0319042FB1077C0803110318013E9A
:101E100003190B2FB2070830F9000310A90DAA0D02
:101E2000AB0DAC0DF90B0D2F2E082D07F900FA01A3
:101E3000FA0D7908823EB3007A080318013EFF3E8E
:101E4000B400412F0130F9000310AF0DB00DB10DFA
:101E5000B20DF90B242FAC1F2E2F2F2F312F2F1443
:101E6000312F0130F9000310A90DAA0DAB0DAC0DF7
:101E7000F90B332FFF30B3070318B40AFF30B40750
:101E8000412FB11F442F452F222F462FAD01AC1FEC
:101E90004A2F4B2F6B2FFF302905F900FF302A0501
:101EA000FA00FF302B05FB007F302C05FC007C087E
:101EB0007B047A04790403195E2F5F2F622FAD0132
:101EC000AD0A6B2F2F1C652F662F6B2FAD01AD0A4E
:101ED0006B2F6B2F6B2F2D0803196F2F702FA32FD4
:101EE0000130AF07003003180130B007003003188D
:101EF0000130B107003003180130B207321C812FC6
:101F0000822FA32F2F08F9003008FA003108FB00B8
:101F10003208FC000130FD007C0DFC0CFB0CFA0CBF
:101F2000F90CFD0B8C2F7C08B2007B08B1007A08FD
:101F3000B0007908AF000130B3070318B40A0030CD
:101F4000B407A32FA32F3408803AFF0080307F020C
:101F5000031DAC2FFF303302031CAF2FB02FBB2F5C
:101F60007F3083120313B2008030B1000030B00024
:101F70000030AF00F22F831203133408803AFF00C1
:101F800080307F02031DC62F013033020318C92F92
:101F9000CA2FD62F003083120313B2000030B100D5
:101FA0000030B0000030AF00A801F22F83120313FD
:101FB0003308F9007908AE00FF30AF05FF30B005F7
:101FC0007F30B1050030B2052E1CE72FE82FEA2F35
:101FD000B117EA2F2E08F9000310790CFA007A08DD
:101FE000B200F22F2808F9007908B2043208A300E1
:101FF0003108A2003008A1002F08A000FF2F080020
:1020020083120313B5003508B3003308B600B701D5
:102012002F30B3003308B4002D08A0002E08A10011
:102022003430B3003308A20036300A128A15362043
:102032000A168A118312031336088400831380015F
:1020420022280800F000701C272828282C28831238
:10205200031308162F28831203130812F01C3228C8
:1020620033283528881636288812701D39283A28D0
:102072003C2808173D280813F01D40284128432812
:1020820088174528881345280800F401F5014928D6
:10209200701C4C284D2853287208F4070318F50ABF
:1020A2007308F50701300310F20DF30DFF3E031D17
:1020B200542801300310F10CF00CFF3E031D5B2885
:1020C20070087104031D6628672849286828750866
:1020D200F1007408F0006D280800F40074080F394C
:1020E200F1007108F2007408F039F1007108F30090
:1020F2008312031308157308F10004300310F10C66
:10210200FF3E031D7F2871080A168A1123200A1632
:102112008A118312031388154230F100F10B8F28C4
:10212200000083120313881172080A168A112320F1
:102132000A168A118312031388154230F100F10B3B
:10214200A02800008312031388110800780879047C
:102152000319AC28AD28E228FD01FD0ABC28013094
:102162000310F80DF90DFF3E031DB1280130FC00EC
:102172007C08FD07BC28F91FBF28C028B028C22848
:10218200C22879087B02031DC82878087A02031C3A
:10219200CB28CC28D3287808FA027908031CFB0341
:1021A200FB02D32801300310F90CF80CFF3E031D8B
:1021B200D4280130FD02031DDF28E028C228E228CE
:1021C200E2287B08F9007A08F800E7280800FA01FB
:1021D200FB010E297A087507F8007608F700031844
:1021E200F70AFA1FF528F7037708F900790883122E
:1021F2000313FF00780884000A168A1500200A16C5
:102202008A110A168A116E200A168A110130FA07FB
:102212000318FB0A0030FB070E297A087507F8003D
:102222007608F7000318F70AFA1F1829F703770848
:10223200F900790883120313FF00780884000A1654
:102242008A1500200A168A11003A031D29292A2913
:10225200EB282B290800F501F60170087104031917
:10226200332934297129F701F70A43290130031070
:10227200F00DF10DFF3E031D38290130F400740802
:10228200F7074329F11F46294729372949294929AF
:1022920001300310F50DF60DFF3E031D4A297108AA
:1022A2007302031D562970087202031C59295A2908
:1022B20062297008F2027108031CF303F302751419
:1022C200622901300310F10CF00CFF3E031D63295B
:1022D2000130F702031D6E296F29492971297129DD
:1022E2007608F1007508F0007629080000300A1619
:1022F2008A1123200A168A118230F500DD30F4009B
:10230200F40B8129F50B8129862903300A168A15D7
:10231200CB270A168A114830F5006C30F400F40B12
:102322009029F50B9029000003300A168A15CB2755
:102332000A168A112130F5007630F400F40B9F2939
:10234200F50B9F29000003300A168A15CB270A16BF
:102352008A1102300A168A15CB270A168A11023010
:102362000A168A15CB270A168A1108300A168A1508
:10237200CB270A168A1100300A168A15CB270A16AD
:102382008A110C300A168A15CB270A168A110030D8
:102392000A168A15CB270A168A1106300A168A15DA
:1023A200CB270A168A110800F601F31FD929DA2968
:1023B200E229F209F309F20A0319F30AF601F60A0D
:1023C200E229F11FE529E629EC29F009F109F00AD1
:1023D2000319F10AEC29700871040319F129F22991
:1023E200272AF501F50A012A01300310F00DF10D3B
:1023F200FF3E031DF6290130F4007408F507012A97
:10240200F11F042A052AF529072A072A71087302EF
:10241200031D0D2A70087202031C102A112A182AA1
:102422007008F2027108031CF303F302182A013048
:102432000310F10CF00CFF3E031D192A0130F502C6
:10244200031D242A252A072A272A272A7608031960
:102452002B2A2C2A322AF209F309F20A0319F30A67
:10246200322A7308F1007208F000372A0800F601D8
:10247200F11F3C2A3D2A452AF009F109F00A031905
:10248200F10AF601F60A452AF31F482A492A532A75
:10249200F209F309F20A0319F30A0130F40074088D
:1024A200F606532AF701F8017008710403195A2A33
:1024B2005B2A982AF501F50A6A2A01300310F00D09
:1024C200F10DFF3E031D5F2A0130F4007408F50789
:1024D2006A2AF11F6D2A6E2A5E2A702A702A01303A
:1024E2000310F70DF80DFF3E031D712A71087302E8
:1024F200031D7D2A70087202031C802A812A892A00
:102502007008F2027108031CF303F3027714892A9C
:1025120001300310F10CF00CFF3E031D8A2A01303A
:10252200F502031D952A962A702A982A982A760877
:1025320003199C2A9D2AA32AF709F809F70A031905
:10254200F80AA32A7808F1007708F000A82A080000
:10255200831203133508B9003608BA003708BB00E6
:102562003808BC0003103B0D3C0DBD003D08BF0008
:102572003F08031DBD2ABE2AC82A0030B800003019
:10258200B7000030B6000030B500442B442B3508AC
:10259200B9003608BA003708BB003808BC001F3043
:1025A2000310BC0CBB0CBA0CB90CFF3E031DD12AA4
:1025B2003908BD003D08BE00B717FF30B505FF3032
:1025C200B605FF30B7050030B8059630BF02BF1F11
:1025D200EB2AEC2A112B3F08803A973E0318F22A85
:1025E200F32AFE2A0030B8000030B7000030B600EF
:1025F2000030B500442B442BFE2A01300310B80CE6
:10260200B70CB60CB50CFF3E031DFF2A0130B90012
:102612003908BF07031D0E2B0F2BFE2A342B342B38
:1026220020303F02031C162B172B2D2B0030B80035
:102632000030B7000030B6000030B500442B442B08
:102642002D2B0130B9000310B50DB60DB70DB80D25
:10265200B90B242B0130BF023F08031D312B322B53
:10266200222B342B342B3E080319382B392B442BC5
:10267200B509B609B709B809B50A0319B60A0319A3
:10268200B70A0319B80A080077088039F8007808F1
:1026920083120313A4007708F8007807F900790879
:1026A200AB00F61F552B562B582B2B14582B2B08EF
:1026B20003195C2B5D2B6E2B2B0A031D612B622BE6
:1026C2006B2B0030F7000030F6000030F5000030D0
:1026D200F4006B2BF617F701772B0030F700003070
:1026E200F6000030F5000030F400772B73088039D3
:1026F200F8007808A4067308F8007807F90079084A
:10270200AC00F21F852B862B882B2C14882B2C08CF
:1027120003198C2B8D2B9E2B2C0A031D912B922B94
:102722009B2B0030F3000030F2000030F10000304B
:10273200F0009B2BF217F301A62B0030F3000030C0
:10274200F2000030F1000030F000730872047104EE
:102752007004031DAD2BAE2BC82B0030F7000030E8
:10276200F6000030F5000030F4008030F6047F30CF
:10277200F7042408F8007808F7047708F3007608CD
:10278200F2007508F1007408F000532D532D2B0848
:10279200031DCC2BCD2BDF2B0030F7000030F600D1
:1027A2000030F5000030F4007708F3007608F200FC
:1027B2007508F1007408F000532D532D2C08F80011
:1027C200F901F809F909F80A0319F90A2B08780737
:1027D200FA0079080318790AFB007A087F3EA500FF
:1027E2007B080318013E003EA6007708A300760886
:1027F200A2007508A1007408A0000030F7000030A4
:10280200F6000030F5000030F4000030AA0000307D
:10281200A9000030A8000030A700AC01642C2C08ED
:102822000319142C152C372C0130F8000310A00DBD
:10283200A10DA20DA30DF80B172C0130F800031007
:10284200F40DF50DF60DF70DF80B202CAA1F2A2C0E
:102852002B2C2D2C74142D2C0130F8000310A70DF5
:10286200A80DA90DAA0DF80B2F2C372C73082302E3
:10287200031D452C72082202031D452C71082102FA
:10288200031D452C70082002031C482C492C5F2C88
:102892002A177008A0027108031C710F512C522CC8
:1028A200A1027208031C720F572C582CA202730843
:1028B200031C730F5D2C5E2CA3025F2C0130F80009
:1028C2007808AC07642C1A302C02031C692C6A2C81
:1028D200102C6B2C23082204210420040319722CCF
:1028E200732C952C2714952C952C0130F80003108D
:1028F200F40DF50DF60DF70DF80B782CAA1F822CAE
:10290200832C852C7414852C0130F8000310A70D3C
:10291200A80DA90DAA0DF80B872CFF30A5070318E7
:10292200A60AFF30A607952CF61F982C992C762C18
:102932009A2CAC01AA1F9E2C9F2CBF2CFF3027057E
:10294200F800FF302805F900FF302905FA007F3032
:102952002A05FB007B087A04790478040319B22C57
:10296200B32CB62CAC01AC0ABF2C741CB92CBA2CFB
:10297200BF2CAC01AC0ABF2CBF2CBF2C2C080319F6
:10298200C32CC42CF72C0130F4070030031801309B
:10299200F507003003180130F60700300318013044
:1029A200F707771CD52CD62CF72C7408F80075087D
:1029B200F9007608FA007708FB000130FC007B0D75
:1029C200FB0CFA0CF90CF80CFC0BE02C7B08F70062
:1029D2007A08F6007908F5007808F4000130A507B6
:1029E2000318A60A0030A607F72CF72C2608803A0F
:1029F200FF0080307F02031D002DFF302502031CE3
:102A0200032D042D132DFF3083120313A500003074
:102A1200A6000030F7000030F6000030F50000306C
:102A2200F400132D831203132608803AFF0080302E
:102A32007F02031D1E2D013025020318212D222D98
:102A42002F2D83120313A501A6010030F7000030D9
:102A5200F6000030F5000030F400A40183120313E5
:102A62002508F8007808AB002B1C382D392D3B2D9A
:102A7200F6173F2D7F30F8007808F6052B08F8008E
:102A82000310780CF9007908F7002408F800780898
:102A9200F7047708F3007608F2007508F10074086D
:102AA200F000532D080090308400CC3083120313C1
:102AB200C0000408C1000A30C20040088400831725
:102AC2000008C300C00A4108840043088000C10A0C
:102AD200C20B5E2D44308400C230C0000408C10025
:102AE2000A30C2004008840083170008C300C00AED
:102AF20041088400831343088000C10AC20B732D6E
:102B02000A168A15B5270A168A11831603130710A7
:102B1200871007118711831203138601831603138B
:102B2200860188010A168A1177210A168A110A1665
:102B32008A156E270A168A119E2D4E3083120313B0
:102B4200AD009830AE000A168A15E5270A168A11DA
:102B52001C3083120313AD009830AE000A168A159A
:102B6200E5270A168A119E3083120313AD009930AD
:102B7200AE000A168A15E5270A168A1168308312F2
:102B82000313AD009930AE000A168A15E5270A161E
:102B92008A11C33083120313AD009930AE000A16B6
:102BA2008A15E5270A168A11763083120313AD00BF
:102BB2009930AE000A168A15E5270A168A117F3067
:102BC20083120313AD009830AE000A168A15E5276A
:102BD2000A168A110A168A157B270A168A11831287
:102BE2000313C000C101400883160317A800831213
:102BF2000313410883160317A90028080A128A152D
:102C020000200A168A11E03083120313AD009930B6
:102C1200AE000A168A15E5270A168A110A128A11C7
:102C2200C72FDF3083120313AD009830AE000A16AF
:102C32008A15E5270A168A11F401F40A01300A12EC
:102C42008A1113200A168A11AB30F5009930F6006A
:102C52000A168A11E8200A168A11273083120313F2
:102C6200AD009930AE000A168A15E5270A168A11B8
:102C72000A168A157B270A168A1183120313C000CB
:102C8200C101400883160317AA00831203134108E7
:102C920083160317AB002A080A128A1500200A16A7
:102CA2008A11831603172A08D03E9A002B080318AC
:102CB200013EFF3E9B0083120313871407158715FD
:102CC200831603171A08903E8400831700088312A4
:102CD2000313860007101130AD009930AE000A16BA
:102CE2008A15E5270A168A110A168A157B270A16FB
:102CF2008A1183120313C000C1014008831603170F
:102D0200AC0083120313410883160317AD002C088D
:102D12000A128A1500200A168A11831603172C0834
:102D2200D03E9C002D080318013EFF3E9D008312F9
:102D32000313071407158715831603171C08903E03
:102D4200840083170008831203138600871007305C
:102D520083120313C2005830C1005930C000C00BA7
:102D6200B02EC10BB02EC20BB02E831603171C0857
:102D72001A07BC001D0803181D0A1B07BD003D08E9
:102D8200803AFF0080307F02031DC92E0A303C02C8
:102D92000318CC2ECD2EEC2E8312031307148714A6
:102DA2008715831603173C08903E8400831700089A
:102DB2008312031386000711073083120313C20024
:102DC2005830C1005930C000C00BE52EC10BE52EB2
:102DD200C20BE52E532F0A30F0000030F1008316AB
:102DE20003173D08F3003C08F2000A168A11382244
:102DF2000A168A11710883160313DD007008DC00BD
:102E020083120313071487148715831603135C08B0
:102E1200903E840083170008831203138600071173
:102E2200073083120313C2005830C1005930C0006A
:102E3200C00B192FC10B192FC20B192F0A30F0002A
:102E42000030F100831603173D08F3003C08F2003E
:102E52000A168A11D5210A168A11710883160313DC
:102E6200DF007008DE0083120313071487140715AE
:102E7200831603135E08903E8400831700088312B2
:102E8200031386008711073083120313C2005830E0
:102E9200C1005930C000C00B4C2FC10B4C2FC20BCC
:102EA2004C2F532FDD3083120313AD009930AE0047
:102EB200831603173D0883120313B000831603170A
:102EC2003C0883120313AF004E300A168A11012008
:102ED2000A168A113D3083120313AD009930AE00F9
:102EE2000A168A15E5270A168A114E308312031331
:102EF200AD000030AE000A168A15E5270A168A11BF
:102F0200E03083120313AD009930AE000A168A1521
:102F1200E5270A168A11F401F40A02300A128A110C
:102F220013200A168A11831603172A080A168A1111
:102F32006E200A168A11033083120313C000400860
:102F4200F40002300A128A1113200A168A112B3059
:102F52000A168A116E200A168A110530831203138B
:102F6200C0004008F40002300A128A1113200A1627
:102F72008A11831603172C080A168A116E200A1664
:102F82008A11073083120313C0004008F400023094
:102F92000A128A1113200A168A113D300A168A1162
:102FA2006E200A168A11093083120313C0004008EA
:102FB200F40002300A128A1113200A168A114E30C6
:102FC200F5000030F6000A168A11E8200A168A1166
:102FD2000D3083120313C200AF30C100B530C00000
:102FE200C00BF12FC10BF12FC20BF12FF82F0A16D4
:102FF2008A156E270A168A110A128A11DC2FFF1B04
:103002000A2883137F1883170008840A0319FF0A0A
:1030120008007F087F398A000408840A0319FF0A1E
:103022008200013400340A34003464340034E83459
:103032000334103427340D34203420342034203427
:1030420020342034203420342034203420342034DE
:1030520020342034203420345A3445344834523415
:1030620041342034533441344234493443342034DB
:10307200383439343034203420342034203420346D
:10308200203420342034203420342034203420349E
:1030920020342034203420340034203420342034AE
:1030A200203420342034203420342034203420347E
:1030B20020344434493447344934543441344C3450
:1030C2004E3449342034533449345334543445341F
:1030D2004D34493420342D3420344934533450345F
:1030E20049345434203420342034203420342034E1
:1030F2002034203420342034203400340D3455342C
:103102006E346534733469347434653420346F3406
:103112007034633469346A34753420346B346F34F8
:103122006A34753420347A3465346C3469347434D6
:10313200653420347234653461346C3469347A34E1
:10314200693472346134743469343A34203400346A
:103152000D340D344F34643461346234723461346A
:103162006C346934203473347434653420346F34ED
:10317200643475347A3469346D3461346E346A344B
:103182006534213400340D340D344F3464346134E9
:103192006234723461346C3469342034733474347C
:1031A20065342034643469346A3465346C346A3486
:1031B20065346E346A346534213400340D344F344E
:1031C200643461346234723461346C34693420346E
:1031D2007334743465342034733461346234693442
:1031E200723461346E346A346534213400340D34FF
:1031F2000D344F34643461346234723461346C346B
:103202006934203473347434653420346D346E344C
:103212006F347A3465346E346A3465342134003460
:103222000D3455346E346534733469347434653412
:10323200203464347234753467346934203462342F
:1032420072346F346A343A34203400340D340D341D
:1032520055346E34653473346934743465342034CF
:1032620070347234763469342034623472346F3498
:103272006A343A34203400340D34533461346234C5
:103282006934723461346E346A34653420342D34D6
:103292003E34203400340D34503472346F34693487
:1032A2007A3476346F34643420342D343E3420340E
:1032B20000340D344B346F346C34693463346E34FF
:1032C20069346B3420342D343E34203400340D34D0
:1032D20032342E344F34643475347A3469346D3474
:1032E20061346E346A34653400340D3434342E342F
:1032F200443469346A3465346C346A3465346E3407
:103302006A3465340034443469346A3465346C3464
:103312006A3465346E346A3465343A3420340034A5
:103322000D34523461347A346C3469346B34613420
:1033320020342D343E34203400340D3431342E34D4
:103342005334613462346934723461346E346A34B1
:103352006534003453346134623469347234613414
:103362006E346A3465343A34203400344F34643471
:1033720075347A3469346D3461346E346A34653448
:103382003A3400340D3433342E344D346E346F34C9
:103392007A3465346E346A34653400344D346E34B4
:1033A2006F347A3465346E346A3465343A34203496
:1033B2000034253464342E342534643400340D341E
:0433C2000D34003492
:103EDC0000300A168A15CB270A168A1501300A16E5
:103EEC008A15CB270A168A15080083120313981C0F
:103EFC00802F812F852F18121816852F852F8C1E39
:103F0C00882F892F852F8A2F1A088C2F08007E085E
:103F1C008A007F0882000A168A158D270A168A15D0
:103F2C008000840A04087D0603190034FF0A031973
:103F3C00FE0A912FBF348634DB34CF34E634ED34B3
:103F4C00FD348734FF341F343F3406345B344F3434
:103F5C0066346D347D3407347F346F3440348316CB
:103F6C000313071387178130990018151812831241
:103F7C00031398171816831603139816831203133A
:103F8C0018138316031318130800F300831203137A
:103F9C00081173080A168A1123200A168A1583122F
:103FAC00031388151A30F200F830F100F10BDC2FF6
:103FBC00F20BDC2F0000831203138811080083120C
:103FCC000313B1010130AF002F08B2002F30AF0046
:103FDC002F08B0002D08A0002E08A1003030AF0033
:103FEC002F08A20031300A128A1536200A168A15BB
:043FFC00FF2F08008B
:02400E007A3FF7
:00000001FF
