:020000040000FA
:060000000A128A11EE2F26
:10000C0000300A128A152F230A128A1101300A12A3
:10001C008A152F230A128A1108008312031335083C
:10002C00B9003608BA003708BB003808BC0003100A
:10003C003B0D3C0DBD003D08BF003F08031D2728AC
:10004C00282832280030B8000030B7000030B60045
:10005C000030B500AE28AE283508B9003608BA0015
:10006C003708BB003808BC001F300310BC0CBB0C9D
:10007C00BA0CB90CFF3E031D3B283908BD003D08E6
:10008C00BE00B717FF30B505FF30B605FF30B7051A
:10009C000030B8059630BF02BF1F552856287B2864
:1000AC003F08803A973E03185C285D28682800308A
:1000BC00B8000030B7000030B6000030B500AE28F4
:1000CC00AE28682801300310B80CB70CB60CB50C70
:1000DC00FF3E031D69280130B9003908BF07031D15
:1000EC007828792868289E289E2820303F02031CF7
:1000FC008028812897280030B8000030B7000030E5
:10010C00B6000030B500AE28AE2897280130B900F3
:10011C000310B50DB60DB70DB80DB90B8E28013007
:10012C00BF023F08031D9B289C288C289E289E28D4
:10013C003E080319A228A328AE28B509B609B709A9
:10014C00B809B50A0319B60A0319B70A0319B80A8C
:10015C00080083120313A00020080319B628B7283F
:10016C00CB28F81FBA28BB28CB287509A200760922
:10017C00A3007709A4007809A500A20A0319A30A11
:10018C000319A40A0319A50AD3287808A50077082F
:10019C00A4007608A3007508A200780877047604FA
:1001AC007504031DDA28DB28E5280030F800003040
:1001BC00F7000030F6000030F500722972299630F5
:1001CC00F9007908A100F8280130F9007908A10795
:1001DC0001300310A50CA40CA30CA20CFF3E031DB4
:1001EC00EF28F828FE302505031DFD28FE28EA28F7
:1001FC001B291B290130F9007908A1070130A2073E
:10020C00003003180130A307003003180130A40795
:10021C00003003180130A50701300310A50CA40C05
:10022C00A30CA20CFF3E031D1329FF302505031D53
:10023C002029212900292F292F290130A102013041
:10024C00F9000310A20DA30DA40DA50DF90B272980
:10025C002F29A41B322933293A29023021020318F1
:10026C003829392923293A2921183D293E2946299B
:10027C00FF30A205FF30A3057F30A405FF30A50594
:10028C000310A10C2108F900FA01FB01FC01183044
:10029C000310F90DFA0DFB0DFC0DFF3E031D4E294D
:1002AC007908A2047A08A3047B08A4047C08A5049A
:1002BC0020080319622963296929F81F662967290F
:1002CC006929A51769292508F8002408F7002308CF
:1002DC00F6002208F5007229080083120313860128
:1002EC008316031386010710871007118711071255
:1002FC0087120910891088010A128A15BD240A1266
:10030C008A110A128A1106200A128A110A128A15F7
:10031C0017230A128A1144308400A030831203136D
:10032C00C0000408C1000A30C200400884008313D6
:10033C000008C300C00A4108840043088000C10AB9
:10034C00C20B9B290330C0004008E4000A128A1536
:10035C00D3220A128A118312031307108710071174
:10036C008711071287120810881009108910BE29EE
:10037C005F30F2009030F3000A128A156C230A12D7
:10038C008A110030F2009030F3000A128A156C23A7
:10039C000A128A113330F2009030F3000A128A15D7
:1003AC006C230A128A118930F2009030F3000A1281
:1003BC008A156C230A128A11AA30F2009030F300CD
:1003CC000A128A156C230A128A11C530F200903079
:1003DC00F3000A128A156C230A128A110A128A1562
:1003EC00F2220A128A1183120313C000C1014008C1
:1003FC00E5004108E60065080A128A15E6220A1291
:10040C008A113030F2009030F3000A128A156C23F6
:10041C000A128A115B2CDF30F2009030F3000A12C2
:10042C008A156C230A128A11F401F40A01300A129B
:10043C008A1569240A128A114A30F5009130F600A7
:10044C000A128A1525240A128A11F401F40A0230C0
:10045C000A128A1569240A128A112A30F500913081
:10046C00F6000A128A1525240A128A118312031324
:10047C0007108714071187150712871608108814A0
:10048C0009108914333083120313C200BB30C1002E
:10049C00DF30C000C00B502AC10B502AC20B502AAF
:1004AC000A128A1106200A128A116D2CF830F200F9
:1004BC009030F3000A128A156C230A128A11F40187
:1004CC00F40A01300A128A1569240A128A113A3088
:1004DC00F5009130F6000A128A1525240A128A11A9
:1004EC00F401F40A02300A128A1569240A128A11DC
:1004FC006230F5009130F6000A128A1525240A1292
:10050C008A1183120313E201E3016308803AFF00AE
:10051C0080307F02031D942A1F306202031C972A2D
:10052C00982A9A2AD42AD42A831203136408443EA4
:10053C008400831300088600073083120313C20063
:10054C005830C1005930C000C00BAA2AC10BAA2ACE
:10055C00C20BAA2A013083120313C0004008E4071F
:10056C0009306402031CBB2ABC2AC02A0330C00019
:10057C004008E4000130E2070318E30A0030E30707
:10058C006308803AFF0080307F02031DCF2A1F30A2
:10059C006202031CD22AD32A9A2AD42A0A128A115A
:1005AC0006200A128A116D2C1130F2009130F300E2
:1005BC000A128A156C230A128A1104300A128A153F
:1005CC00BE230A128A11700883120313C00071082B
:1005DC00C100C201C3014308F8004208F7004108FA
:1005EC00F6004008F50000300A128A11AF200A12FA
:1005FC008A11780883120313D1007708D00076088B
:10060C00CF007508CE004030A3009C30A2003F30D4
:10061C00A100FB30A0005108A7005008A6004F080D
:10062C00A5004E08A4000A128A1179240A128A1114
:10063C00831203132308D5002208D4002108D30009
:10064C002008D2004130F3002030F2000030F100DD
:10065C000030F0005508F7005408F6005308F50078
:10066C005208F4000A128A15F1250A128A1173082D
:10067C0083120313D9007208D8007108D7007008D0
:10068C00D6005908A7005808A6005708A500560818
:10069C00A4004230A300C830A2000030A1000030FA
:1006AC00A0000A128A1179240A128A1183120313E8
:1006BC002308B8002208B7002108B6002008B500AE
:1006CC000A128A1113200A128A1183120313360894
:1006DC00E8003508E7000A30F9000030FA00E8308D
:1006EC00F0000330F1006808F3006708F2000A120A
:1006FC008A1580250A128A117108FC007008FB000B
:10070C000A128A151B250A128A117A0883120313FE
:10071C00DB007908DA000A30F9000030FA006430A6
:10072C00F0000030F1006808F3006708F2000A12CC
:10073C008A1580250A128A117108FC007008FB00CA
:10074C000A128A151B250A128A117A0883120313BE
:10075C00DD007908DC000A30F9000030FA000A30BC
:10076C00F0000030F1006808F3006708F2000A128C
:10077C008A1580250A128A117108FC007008FB008A
:10078C000A128A151B250A128A117A08831203137E
:10079C00DF007908DE000A30F9000030FA00680842
:1007AC00FC006708FB000A128A151B250A128A1125
:1007BC007A0883120313E1007908E0000A128A1107
:1007CC0006200A128A11033083120313C00040085A
:1007DC00F40001300A128A1569240A128A11563063
:1007EC00F5009130F6000A128A1525240A128A1196
:1007FC00053083120313C0004008F40002300A12C3
:10080C008A1569240A128A11831203135A08303E7E
:10081C000A128A15EC230A128A11831203135C083C
:10082C00303E0A128A15EC230A128A11F630F500B2
:10083C009030F6000A128A1525240A128A118312A6
:10084C0003135E08303E0A128A15EC230A128A1131
:10085C00831203136008303E0A128A15EC230A1225
:10086C008A11DF300A128A15EC230A128A116D30B4
:10087C00F5009130F6000A128A1525240A128A1105
:10088C004D3083120313C2001930C1004F30C00029
:10089C00C00B4E2CC10B4E2CC20B4E2C0A128A11C3
:1008AC0006200A128A116D2C6D2C83120313660814
:1008BC00003A0319622C6D2C6508313A0319112A80
:1008CC00033A03195C2A013A0319DA2A6D2C8312B4
:1008DC00031365086604031D742C752CBE29762C35
:1008EC000A128A1100288312031323088039F90095
:1008FC007908A8002308F9007907FA007A08AE00F5
:10090C00A21F892C8A2C8C2C2E148C2C2E080319AB
:10091C00902C912CA12C2E0A031D952C962C9F2CDF
:10092C000030A3000030A2000030A1000030A00075
:10093C009F2CA217AA2C0030A3000030A20000307C
:10094C00A1000030A000AA2C27088039F9007908F2
:10095C00A8062708F9007907FA007A08AD00A61F47
:10096C00B82CB92CBB2C2D14BB2C2D080319BF2C67
:10097C00C02CD02C2D0A031DC42CC52CCE2C003021
:10098C00A7000030A6000030A5000030A400CE2C3B
:10099C00A617D92C0030A7000030A6000030A50007
:1009AC000030A400D92C2D080319DD2CDE2CE42CEE
:1009BC002E08031DE22CE32CEE2CE42C0030A300BB
:1009CC000030A2000030A1000030A000ED2FED2F70
:1009DC002008F9007908F00026080A128A159423D9
:1009EC000A128A11710883120313B4007008B30041
:1009FC003308F900FA01FB01FC017C08AC007B0810
:100A0C00AB007A08AA007908A9003408F900FA01A9
:100A1C00FB01FC017C08B2007B08B1007A08B00035
:100A2C007908AF002108F9007908F00025080A12AE
:100A3C008A1594230A128A11710883120313B400C5
:100A4C007008B3003308F900FA01FB01FC017908C6
:100A5C00A9077A0803110318013E0319362DAA07BA
:100A6C007B0803110318013E03193D2DAB077C08CD
:100A7C0003110318013E0319442DAC073408F90087
:100A8C00FA01FB01FC017908AF077A08031103187E
:100A9C00013E0319522DB0077B0803110318013EC8
:100AAC000319592DB1077C0803110318013E0319D2
:100ABC00602DB2072208F9007908F00024080A1208
:100ACC008A1594230A128A11710883120313B40035
:100ADC007008B3003308F900FA01FB01FC01790836
:100AEC00A9077A0803110318013E03197E2DAA07E2
:100AFC007B0803110318013E0319852DAB077C08F5
:100B0C0003110318013E03198C2DAC073408F900AE
:100B1C00FA01FB01FC017908AF077A0803110318ED
:100B2C00013E03199A2DB0077B0803110318013EEF
:100B3C000319A12DB1077C0803110318013E0319F9
:100B4C00A82DB2070830F9000310A90DAA0DAB0DA2
:100B5C00AC0DF90BAA2D2108F9007908F000240836
:100B6C000A128A1594230A128A117108831203132C
:100B7C00B4007008B3003308F9003408FA00FB0124
:100B8C00FC017908A9077A0803110318013E03191F
:100B9C00D02DAA077B0803110318013E0319D72D8A
:100BAC00AB077C0803110318013E0319DE2DAC07BB
:100BBC002008F9007908F00025080A128A159423F8
:100BCC000A128A11710883120313B4007008B3005F
:100BDC003308F9003408FA00FB01FC017908A90775
:100BEC007A0803110318013E0319FD2DAA077B088F
:100BFC0003110318013E0319042EAB077C080311E3
:100C0C000318013E03190B2EAC070830F900031032
:100C1C00A90DAA0DAB0DAC0DF90B0D2E2008F9008A
:100C2C007908F00024080A128A1594230A128A11F2
:100C3C00710883120313B4007008B3003308F90071
:100C4C003408FA00FB01FC017908A9077A080311A2
:100C5C000318013E0319332EAA077B08031103184E
:100C6C00013E03193A2EAB077C0803110318013E11
:100C7C000319412EAC072108F9007908F000260869
:100C8C000A128A1594230A128A117108831203130B
:100C9C00B4007008B3003308F9003408FA00FB0103
:100CAC00FC017908AF077A0803110318013E0319F8
:100CBC00602EB0077B0803110318013E0319672E41
:100CCC00B1077C0803110318013E03196E2EB207FD
:100CDC002208F9007908F00025080A128A159423D5
:100CEC000A128A11710883120313B4007008B3003E
:100CFC003308F9003408FA00FB01FC017908AF074E
:100D0C007A0803110318013E03198D2EB0077B08D6
:100D1C0003110318013E0319942EB1077C0803112B
:100D2C000318013E03199B2EB2072208F90079081B
:100D3C00F00026080A128A1594230A128A117108E7
:100D4C0083120313B4007008B3003308F90034089D
:100D5C00FA00FB01FC0108300310F90DFA0DFB0D34
:100D6C00FC0DFF3E031DB22E7908AF077A08031164
:100D7C000318013E0319C32EB0077B080311031897
:100D8C00013E0319CA2EB1077C0803110318013E5A
:100D9C000319D12EB2072908F9002A08FA002B08EA
:100DAC00FB002C08FC0018300310FC0CFB0CFA0C9C
:100DBC00F90CFF3E031DDA2E7908AF077A080311F0
:100DCC000318013E0319EB2EB0077B08031103181F
:100DDC00013E0319F22EB1077C0803110318013EE2
:100DEC000319F92EB2070830F9000310A90DAA0D4A
:100DFC00AB0DAC0DF90BFB2E2E082D07F900FA01EB
:100E0C00FA0D7908823EB3007A080318013EFF3EC2
:100E1C00B4002F2F0130F9000310AF0DB00DB10D40
:100E2C00B20DF90B122FAC1F1C2F1D2F1F2F2F14BF
:100E3C001F2F0130F9000310A90DAA0DAB0DAC0D3D
:100E4C00F90B212FFF30B3070318B40AFF30B40796
:100E5C002F2FB11F322F332F102F342FAD01AC1F7A
:100E6C00382F392F592FFF302905F900FF302A056B
:100E7C00FA00FF302B05FB007F302C05FC007C08B2
:100E8C007B047A04790403194C2F4D2F502FAD019C
:100E9C00AD0A592F2F1C532F542F592FAD01AD0ACA
:100EAC00592F592F592F2D0803195D2F5E2F912F74
:100EBC000130AF07003003180130B00700300318C1
:100ECC000130B107003003180130B207321C6F2F0C
:100EDC00702F912F2F08F9003008FA003108FB0011
:100EEC003208FC000130FD007C0DFC0CFB0CFA0CF4
:100EFC00F90CFD0B7A2F7C08B2007B08B1007A0844
:100F0C00B0007908AF000130B3070318B40A003001
:100F1C00B407912F912F3408803AFF0080307F0264
:100F2C00031D9A2FFF303302031C9D2F9E2FA92FD8
:100F3C007F3083120313B2008030B1000030B00058
:100F4C000030AF00E02F831203133408803AFF0007
:100F5C0080307F02031DB42F013033020318B72FEA
:100F6C00B82FC42F003083120313B2000030B1002D
:100F7C000030B0000030AF00A801E02F8312031343
:100F8C003308F9007908AE00FF30AF05FF30B0052B
:100F9C007F30B1050030B2052E1CD52FD62FD82F9F
:100FAC00B117D82F2E08F9000310790CFA007A0823
:100FBC00B200E02F2808F9007908B2043208A30027
:100FCC003108A2003008A1002F08A000ED2F080066
:100FDC008313AA30FD000A30FE00DC30FF00A03085
:100FEC0084000A128A1508230A128A1183010A1234
:100FFC008A117329FF1B0A2883137F188317000893
:10100C00840A0319FF0A08007F087F398A00040844
:08101C00840A0319FF0A820097
:10159600F10071080A128A15E6220A128A15080055
:1015A6004130831203139F00C030831603139F003C
:1015B60008003F3406345B344F3466346D347D3472
:1015C60007347F346F34F000E82A831203130C1EAD
:1015D600ED2AEE2AE82AEF2A7008990008008312FD
:1015E6000313981CF72AF82AFC2A18121816FC2A44
:1015F600FC2A8C1EFF2A002BFC2A012B1A08032B1F
:1016060008007E088A007F0882000A128A150423D1
:101616000A128A158000840A04087D06031900341C
:10162600FF0A0319FE0A082B8316031307138717ED
:101636008130990018151812831203139817831610
:10164600031398168312031318168316031318131D
:101656008312031318130800F300831203130811EF
:1016660073080A128A1549230A128A15831203136C
:1016760088151A30F200F830F100F10B402BF20B0E
:10168600402B00008312031388110800F000701C21
:101696004D2B4E2B522B831203130816552B8312F8
:1016A60003130812F01C582B592B5B2B88165C2B46
:1016B6008812701D5F2B602B622B0817632B081393
:1016C600F01D662B672B692B88176B2B88136B2BEA
:1016D60008007430F4007408F700782B78080A12B2
:1016E6008A15CB220A128A15782B7308F500720820
:1016F600F400F20A0319F30A750883120313FF00B4
:10170600740884000A128A1500200A128A15F60047
:101716007608F8007808031D912B922B712B932BDA
:101726000800F800F401F5017008F200F3017208F0
:10173600F6007308F7009F2B781CA22BA32BA92B6E
:101746007608F4070318F50A7708F5070130031041
:10175600F60DF70DFF3E031DAA2B0310F80C7808B3
:10176600031DB62BB72B9F2BB82B7508F1007408F9
:10177600F000BD2B0800F4000130F200720883125D
:1017860003139F057408F20002300310F20DFF3EAA
:10179600031DC82B0310720DF30073089F040D3050
:1017A600F300FB30F200F20BD62BF30BD62BDB2B20
:1017B600831203131F15DF2B1F19E22BE32BDF2BDD
:1017C600E42B1E08F100831603131E08F000EB2B12
:1017D6000800F40074080F39F1007108F20074086B
:1017E600F039F1007108F30083120313081573082A
:1017F600F10004300310F10CFF3E031DFD2B7108B0
:101806000A128A1549230A128A15831203138815A8
:101816004230F100F10B0D2C0000831203138811E6
:1018260072080A128A1549230A128A1583120313AB
:1018360088154230F100F10B1E2C000083120313B1
:1018460088110800FA01FB014B2C7A087507F8008D
:101856007608F7000318F70AFA1F322CF703770801
:10186600F900790883120313FF00780884000A122E
:101876008A1500200A128A150A128A15EC230A1202
:101886008A150130FA070318FB0A0030FB074B2CB8
:101896007A087507F8007608F7000318F70AFA1FA2
:1018A600552CF7037708F900790883120313FF0014
:1018B600780884000A128A1500200A128A15003A4E
:1018C600031D662C672C282C682C0800F70077036C
:1018D600031D6E2C6F2C922C74087F3EF500750844
:1018E600FA007A08F50004300310F50CFF3E031DDC
:1018F600772C7508F6007608F8007A080F39F50097
:101906007508F90078080A128A152F230A128A1513
:1019160079080A128A152F230A128A15BC2C02305E
:101926007706031D972C982CBC2C7408BF3EF50037
:101936007508FA007A08F50004300310F50CFF3E2E
:10194600031DA02C7508F6007608F8007A080F39F2
:10195600F5007508F90078080A128A152F230A126D
:101966008A1579080A128A152F230A128A15BC2CA1
:10197600BC2C080000300A128A1549230A128A155F
:101986008230F500DD30F400F40BC72CF50BC72CC4
:10199600CC2C03300A128A152F230A128A152130FD
:1019A600F5007630F400F40BD62CF50BD62C00009F
:1019B60003300A128A152F230A128A154830F500B9
:1019C6006C30F400F40BE52CF50BE52C000003302D
:1019D6000A128A152F230A128A1502300A128A154C
:1019E6002F230A128A1502300A128A152F230A1289
:1019F6008A1508300A128A152F230A128A15003012
:101A06000A128A152F230A128A150C300A128A1511
:101A16002F230A128A1500300A128A152F230A125A
:101A26008A1506300A128A152F230A128A1508000B
:101A360083120313A101FC1F212D222D2A2DFB0940
:101A4600FC09FB0A0319FC0AA101A10A2A2DFA1FA7
:101A56002D2D2E2D342DF909FA09F90A0319FA0A42
:101A6600342D79087A040319392D3A2D6F2DA001EA
:101A7600A00A492D01300310F90DFA0DFF3E031D92
:101A86003E2D0130FD007D08A007492DFA1F4C2D83
:101A96004D2D3D2D4F2D4F2D7A087C02031D552DC2
:101AA60079087B02031C582D592D602D7908FB02FD
:101AB6007A08031CFC03FC02602D01300310FA0CAB
:101AC600F90CFF3E031D612D0130A002031D6C2D94
:101AD6006D2D4F2D6F2D6F2D21080319732D742D2C
:101AE6007A2DFB09FC09FB0A0319FC0A7A2D7C08EE
:101AF600FA007B08F9007F2D0800F601F11F842DFE
:101B0600852D8D2DF009F109F00A0319F10AF60168
:101B1600F60A8D2DF31F902D912D9B2DF209F309B9
:101B2600F20A0319F30A0130F4007408F6069B2D35
:101B3600F701F801700871040319A22DA32DE02DF9
:101B4600F501F50AB22D01300310F00DF10DFF3E3F
:101B5600031DA72D0130F4007408F507B22DF11FFF
:101B6600B52DB62DA62DB82DB82D01300310F70DC5
:101B7600F80DFF3E031DB92D71087302031DC52D17
:101B860070087202031CC82DC92DD12D7008F202EF
:101B96007108031CF303F3027714D12D01300310EF
:101BA600F10CF00CFF3E031DD22D0130F502031D92
:101BB600DD2DDE2DB82DE02DE02D76080319E42D60
:101BC600E52DEB2DF709F809F70A0319F80AEB2DAD
:101BD6007808F1007708F000F02D080077088039C2
:101BE600F800780883120313A4007708F800780732
:101BF600F9007908AB00F61F012E022E042E2B14D5
:101C0600042E2B080319082E092E1A2E2B0A031D43
:101C16000D2E0E2E172E0030F7000030F600003085
:101C2600F5000030F400172EF617F701232E0030CA
:101C3600F7000030F6000030F5000030F400232EE7
:101C460073088039F8007808A4067308F800780746
:101C5600F9007908AC00F21F312E322E342E2C14E6
:101C6600342E2C080319382E392E4A2E2C0A031D21
:101C76003D2E3E2E472E0030F3000030F20000309D
:101C8600F1000030F000472EF217F301522E00301B
:101C9600F3000030F2000030F1000030F00073086D
:101CA600720471047004031D592E5A2E742E0030CE
:101CB600F7000030F6000030F5000030F400803008
:101CC600F6047F30F7042408F8007808F70477084C
:101CD600F3007608F2007508F1007408F000FF2F93
:101CE600FF2F2B08031D782E792E8B2E0030F70040
:101CF6000030F6000030F5000030F4007708F300FD
:101D06007608F2007508F1007408F000FF2FFF2F27
:101D16002C08F800F901F809F909F80A0319F90A73
:101D26002B087807FA0079080318790AFB007A0865
:101D36007F3EA5007B080318013E003EA6007708FB
:101D4600A3007608A2007508A1007408A000003060
:101D5600F7000030F6000030F5000030F4000030E7
:101D6600AA000030A9000030A8000030A700AC018E
:101D7600102F2C080319C02EC12EE32E0130F800B7
:101D86000310A00DA10DA20DA30DF80BC32E01305B
:101D9600F8000310F40DF50DF60DF70DF80BCC2E2B
:101DA600AA1FD62ED72ED92E7414D92E0130F8009C
:101DB6000310A70DA80DA90DAA0DF80BDB2EE32E17
:101DC60073082302031DF12E72082202031DF12E51
:101DD60071082102031DF12E70082002031CF42E47
:101DE600F52E0B2F2A177008A0027108031C710F1D
:101DF600FD2EFE2EA1027208031C720F032F042F64
:101E0600A2027308031C730F092F0A2FA3020B2FBC
:101E16000130F8007808AC07102F1A302C02031C8A
:101E2600152F162FBC2E172F230822042104200459
:101E360003191E2F1F2F412F2714412F412F013029
:101E4600F8000310F40DF50DF60DF70DF80B242F21
:101E5600AA1F2E2F2F2F312F7414312F0130F80087
:101E66000310A70DA80DA90DAA0DF80B332FFF30EF
:101E7600A5070318A60AFF30A607412FF61F442F11
:101E8600452F222F462FAC01AA1F4A2F4B2F6B2F0F
:101E9600FF302705F800FF302805F900FF30290537
:101EA600FA007F302A05FB007B087A04790478045F
:101EB60003195E2F5F2F622FAC01AC0A6B2F741CC7
:101EC600652F662F6B2FAC01AC0A6B2F6B2F6B2F18
:101ED6002C0803196F2F702FA32F0130F407003041
:101EE60003180130F507003003180130F6070030FB
:101EF60003180130F707771C812F822FA32F740850
:101F0600F8007508F9007608FA007708FB0001303A
:101F1600FC007B0DFB0CFA0CF90CF80CFC0B8C2F5F
:101F26007B08F7007A08F6007908F5007808F400CF
:101F36000130A5070318A60A0030A607A32FA32F72
:101F46002608803AFF0080307F02031DAC2FFF3049
:101F56002502031CAF2FB02FBF2FFF3083120313B0
:101F6600A5000030A6000030F7000030F600003073
:101F7600F5000030F400BF2F831203132608803AC1
:101F8600FF0080307F02031DCA2F0130250203188F
:101F9600CD2FCE2FDB2F83120313A501A601003010
:101FA600F7000030F6000030F5000030F400A40120
:101FB600831203132508F8007808AB002B1CE42FC6
:101FC600E52FE72FF617EB2F7F30F8007808F60598
:101FD6002B08F8000310780CF9007908F70024089C
:101FE600F8007808F7047708F3007608F200750819
:101FF600F1007408F000FF2F08000D3431342E3440
:1020060020345534703461346C346934203473347C
:10201600763461346B3475342034643472347534F8
:10202600673475342034643469346F3464347534F9
:10203600203428346F346434203475346B3475346A
:1020460070346E346F342034313430342034643498
:1020560069346F346434613429340D340D340034FA
:102066000D3432342E34203450346F346B347234A1
:1020760065346E3469342034623472346F346A34B1
:102086006134633420346E34613420343734203480
:102096007334653467346D3465346E3474346E3439
:1020A6006F346D34203464346934733470346C3472
:1020B60065346A347534003444346F3462347234AF
:1020C6006F3464346F3473346C346934213420349F
:1020D6004F34643461346234653472346934743430
:1020E600653420346F347034633469346A3475343B
:1020F600203431342C3420343234203469346C3476
:102106006934203433340D340D3400340D346B34DB
:102116006F346A3469342034623472346F346A340A
:10212600693420346F3464342034333420346434D6
:102136006F342034383420347034653474342034A9
:1021460070347534743461340D340D3400340D3408
:1021560033342E3420345434723465346E3475344A
:1021660074346E3461342034743465346D347034B0
:1021760065347234613474347534723461340D34B8
:102186000D3400340D3455346E346534733469348B
:102196007434653420347A3465346C346A34653486
:1021A6006E34753420346F347034633469346A3471
:1021B60075343A34203400340D340D3449347A34CD
:1021C60061346234723461346C346934203473346B
:1021D6007434653420346F347034633469346A344B
:1021E6007534203431342E3400340D340D344934F2
:1021F6007A3461346234723461346C346934203434
:1022060073347434653420346F3470346334693411
:102216006A347534203432342E3400340D340D349F
:1022260049347A3461346234723461346C346934DA
:10223600203473347434653420346F34703463342A
:1022460069346A347534203433342E3400346434BB
:1022560069346F34643461342034753470346134D5
:102266006C346A3465346E3461342134003442345B
:1022760072346F346A3461346E346A3465342034AF
:102286003534203470347534743461340034533446
:10229600763461346B34613420346434723475348A
:1022A600673461340034543465346D3470346534C5
:1022B60072346134743475347234613400346F347A
:1022C600643420343034203464346F342034383469
:0822D6003A34003443340034B3
:02400E00BA3FB7
:00000001FF
