:020000040000FA
:100000000A128A11E92FFF1B0D2883137F1883170B
:100010000008840A0319FF0A080000308A00040857
:10002000840A820700344B346F346E347434723473
:100030006F346C346E3461342034733475346D3401
:1000400061343A34003473346134203473346534A9
:100050006E347A346F3472346134213400344E3467
:1000600065346D34613420346F3464347A346934E7
:10007000763461340034543469346D34653420345A
:100080006F3475347434213400344534523452346E
:0C0090004F345234213421342134003428
:1006020000300A128A1121230A128A1101300A12B9
:100612008A1121230A128A1108007E088A007F08A3
:1006220082000A128A110E230A128A118000840A99
:1006320004087D0603190034FF0A0319FE0A122B6F
:10064200F30083120313081173080A128A11742328
:100652000A128A118312031388150B30F2006230DA
:10066200F100F10B322BF20B322B00008312031339
:100672008811080083160313061083120313061051
:100682004130F100EE30F000F00B452BF10B452B21
:1006920000008312031306141330F000F00B4F2BEB
:1006A200522B831603130614080056346C3461343B
:1006B2007A3420343D342034303430342E343034E3
:1006C2002034253420340034543465346D3470348D
:1006D20020343D342034303430342E34303420341D
:1006E200433420340034F000701C782B792B7D2B9E
:1006F200831203130816802B831203130812F01CB3
:10070200832B842B862B8816872B8812701D8A2BAD
:100712008B2B8D2B08178E2B0813F01D912B922BF0
:10072200942B8817962B8813962B0800F4007408D4
:100732000F39F1007108F2007408F039F100710804
:10074200F3008312031308157308F1000430031039
:10075200F10CFF3E031DA82B71080A128A117423A3
:100762000A128A118312031388151A30F100F10B51
:10077200B82B000083120313881172080A128A111F
:1007820074230A128A118312031388151A30F10096
:10079200F10BC92B00008312031388110800831286
:1007A20003138F018E011014D62B0618D92BDA2BC6
:1007B200E22B64300E02031CDF2BE02BD62BE22B44
:1007C200E22B64300E02031CE72BE82BEC2B031008
:1007D200092C092C092C8F018E01EF2B061CF22B00
:1007E200F32BFB2B64300E02031CF82BF92BEF2B9F
:1007F200FB2BFB2B64300E02031C002C012C052C5E
:100802000310092C092C092C0314092C092C092C7E
:100812000800FA01FB01302C7A087507F800760807
:10082200F7000318F70AFA1F172CF7037708F900E5
:10083200790883120313FF00780884000A128A11D0
:1008420003200A128A110A128A1197230A128A11A4
:100852000130FA070318FB0A0030FB07302C7A0834
:100862007507F8007608F7000318F70AFA1F3A2C02
:10087200F7037708F900790883120313FF00780859
:1008820084000A128A1103200A128A11003A031DF7
:100892004B2C4C2C0D2C4D2C0800F7007703031D1C
:1008A200532C542C772C74087F3EF5007508FA00FF
:1008B2007A08F50004300310F50CFF3E031D5C2C92
:1008C2007508F6007608F8007A080F39F500750801
:1008D200F90078080A128A1121230A128A1179086A
:1008E2000A128A1121230A128A11A12C02307706D8
:1008F200031D7C2C7D2CA12C7408BF3EF5007508CD
:10090200FA007A08F50004300310F50CFF3E031DCF
:10091200852C7508F6007608F8007A080F39F5007C
:100922007508F90078080A128A1121230A128A111D
:1009320079080A128A1121230A128A11A12CA12CE8
:100942000800F3007308840083138001F201083069
:100952007202031CAD2CAE2CB02CF92CF92C831294
:1009620003138F018E01BE2C65300E02031CBA2CBC
:10097200BB2CBE2C0314FB2CFB2C061CC12CC22C42
:10098200B52CC32C8F018E01CF2C65300E02031CB7
:10099200CB2CCC2CCF2C0314FB2CFB2C0618D22CEA
:1009A200D32CC62CD42C33300E02031CD92CDA2CB7
:1009B200EE2C0130F0007203FF3A073E013EE32CB9
:1009C2000310F00DFF3E031DE12C7008F1007308C7
:1009D2008400710883138004EE2C0130F00070084B
:1009E200F20708307202031CF72CF82CB02CF92CF9
:1009F2000310FB2C080000300A128A1174230A1219
:100A02008A113430F500F130F400F40B062DF50BA9
:100A1200062D0B2D03300A128A1121230A128A1184
:100A22000D30F500FB30F400F40B152DF50B152DF0
:100A32001A2D03300A128A1121230A128A111D303B
:100A4200F5009130F400F40B242DF50B242D033026
:100A52000A128A1121230A128A1102300A128A11F9
:100A620021230A128A1102300A128A1121230A1240
:100A72008A1108300A128A1121230A128A110030BF
:100A82000A128A1121230A128A110C300A128A11BF
:100A920021230A128A1100300A128A1121230A1212
:100AA2008A1106300A128A1121230A128A110800B9
:100AB200F601F31F5D2D5E2D662DF209F309F20A90
:100AC2000319F30AF601F60A662DF11F692D6A2D44
:100AD200702DF009F109F00A0319F10A702D70085E
:100AE20071040319752D762DAB2DF501F50A852DAF
:100AF20001300310F00DF10DFF3E031D7A2D013080
:100B0200F4007408F507852DF11F882D892D792DA4
:100B12008B2D8B2D71087302031D912D70087202AB
:100B2200031C942D952D9C2D7008F2027108031C54
:100B3200F303F3029C2D01300310F10CF00CFF3E85
:100B4200031D9D2D0130F502031DA82DA92D8B2D0E
:100B5200AB2DAB2D76080319AF2DB02DB62DF209B2
:100B6200F309F20A0319F30AB62D7308F1007208A9
:100B7200F000BB2D0800F601F11FC02DC12DC92DBB
:100B8200F009F109F00A0319F10AF601F60AC92D72
:100B9200F31FCC2DCD2DD72DF209F309F20A03193B
:100BA200F30A0130F4007408F606D72DF701F801B4
:100BB200700871040319DE2DDF2D1C2EF501F50AD4
:100BC200EE2D01300310F00DF10DFF3E031DE32D5C
:100BD2000130F4007408F507EE2DF11FF12DF22D0E
:100BE200E22DF42DF42D01300310F70DF80DFF3E28
:100BF200031DF52D71087302031D012E7008720288
:100C0200031C042E052E0D2E7008F2027108031C1F
:100C1200F303F30277140D2E01300310F10CF00CE4
:100C2200FF3E031D0E2E0130F502031D192E1A2E52
:100C3200F42D1C2E1C2E76080319202E212E272E71
:100C4200F709F809F70A0319F80A272E7808F100BC
:100C52007708F0002C2E08008312031388018316F4
:100C6200031388018312031386018316031386017B
:100C720010308312031390008F018E010A128A1121
:100C8200FC240A128A110A128A1101230A128A11F9
:100C92004A2E0A128A113B230A128A110A128A1157
:100CA200D0230A128A11031C572E582EAB2F7C30E8
:100CB2000A128A11A2240A128A110318612E622EC4
:100CC2008B2E49300A128A11A2240A128A110318A1
:100CD2006B2E6C2E8B2E7D300A128A11A2240A12E0
:100CE2008A110318752E762E8B2E4A300A128A111B
:100CF200A2240A128A1103187F2E802E8B2E4830CE
:100D02000A128A11A2240A128A11031C892E8A2E1F
:100D1200A62E8B2E0A128A1101230A128A1105307D
:100D220083120313BE003E08F40001300A128A1136
:100D32004E240A128A112930F5008030F6000A1278
:100D42008A110A240A128A11D32F7C0883120313F0
:100D52004907BE00BF01BF0D7D083E07C00000303D
:100D6200031801303F07C1004A084007C2000030A3
:100D7200031801304107C300FF304205C4000030B0
:100D82004305C5004808C600C70145084706031DBC
:100D9200CC2E44084606031DCF2ED02E812F0A30BA
:100DA200F0000030F1007D08BE00BF013E08F200F5
:100DB2003F08F3000A128A11BC250A128A11700830
:100DC200303E83120313C0004008B6000A30F00020
:100DD2000030F1007D08BE00BF013E08F2003F086E
:100DE200F3000A128A1159250A128A117008303E3C
:100DF20083120313C0004008B7000A30F00000302D
:100E0200F1004A08BE00BF013E08F2003F08F300AD
:100E12000A128A11BC250A128A117008303E831206
:100E22000313C0004008B9000A30F0000030F1009E
:100E32007C08BE00BF013E08F2003F08F3000A1220
:100E42008A11BC250A128A117008303E83120313DC
:100E5200C0004008A7000A30F0000030F1007C0812
:100E6200BE00BF013E08F2003F08F3000A128A11D9
:100E720059250A128A117008303E83120313C000EA
:100E82004008A8000A30F0000030F1004908BE0016
:100E9200BF013E08F2003F08F3000A128A11BC2586
:100EA2000A128A117008303E83120313C0004008F0
:100EB200AA00DF30BE003E08BA00F401F40A013095
:100EC2000A128A114E240A128A112F30F5000030BC
:100ED200F6000A128A110A240A128A11F401F40A8B
:100EE20002300A128A114E240A128A112030F500A9
:100EF2000030F6000A128A110A240A128A11D32F2C
:100F02000A128A1101230A128A11F401F40A013029
:100F12000A128A114E240A128A110130F500803019
:100F2200F6000A128A110A240A128A11F401F40A3A
:100F320002300A128A114E240A128A113330F50045
:100F42008030F6000A128A110A240A128A11D32F5B
:100F5200D32FD32F0A128A1101230A128A11F40104
:100F6200F40A01300A128A114E240A128A111D3023
:100F7200F5008030F6000A128A110A240A128A1138
:100F8200F401F40A02300A128A114E240A128A115A
:100F92001130F5008030F6000A128A110A240A1272
:100FA2008A11D32F8312031310100B3083120313F1
:100FB200C0002630BF005D30BE00BE0BDE2FBF0B6F
:100FC200DE2FC00BDE2F4A2E4A2E0A128A1100286B
:100FD20083133E30FD000330FE005630FF00203008
:100FE20084000A128A1112230A128A11C801C90145
:0E0FF200CA01FC01FD0183010A128A112D2E95
:02400E007A3FF7
:00000001FF
