:020000040000FA
:060000000A128A11EE2F26
:10001000F30083120313081173080A168A11472785
:100020000A128A118312031388151A30F200F8306D
:10003000F100F10B1928F20B1928000083120313A9
:1000400088110800831203133508B9003608BA0076
:100050003708BB003808BC0003103B0D3C0DBD0049
:100060003D08BF003F08031D3628372841280030CF
:10007000B8000030B7000030B6000030B500BD2831
:10008000BD283508B9003608BA003708BB00380863
:10009000BC001F300310BC0CBB0CBA0CB90CFF3EEB
:1000A000031D4A283908BD003D08BE00B717FF30C0
:1000B000B505FF30B605FF30B7050030B8059630FE
:1000C000BF02BF1F642865288A283F08803A973EF0
:1000D00003186B286C2877280030B8000030B70070
:1000E0000030B6000030B500BD28BD2877280130AB
:1000F0000310B80CB70CB60CB50CFF3E031D7828E6
:100100000130B9003908BF07031D872888287728E0
:10011000AD28AD2820303F02031C8F289028A62848
:100120000030B8000030B7000030B6000030B50035
:10013000BD28BD28A6280130B9000310B50DB60DA5
:10014000B70DB80DB90B9D280130BF023F08031D44
:10015000AA28AB289B28AD28AD283E080319B12852
:10016000B228BD28B509B609B709B809B50A0319F7
:10017000B60A0319B70A0319B80A080077088039C4
:10018000F800780883120313A4007708F8007807B2
:10019000F9007908AB00F61FCE28CF28D1282B1400
:1001A000D1282B080319D528D628E7282B0A031DA8
:1001B000DA28DB28E4280030F7000030F6000030B1
:1001C000F5000030F400E428F617F701F0280030BD
:1001D000F7000030F6000030F5000030F400F028A1
:1001E00073088039F8007808A4067308F8007807C7
:1001F000F9007908AC00F21FFE28FF2801292C1411
:1002000001292C0803190529062917292C0A031D81
:100210000A290B2914290030F3000030F2000030C5
:10022000F1000030F0001429F217F3011F2900300B
:10023000F3000030F2000030F1000030F0007308ED
:10024000720471047004031D2629272941290030F6
:10025000F7000030F6000030F5000030F400803088
:10026000F6047F30F7042408F8007808F7047708CC
:10027000F3007608F2007508F1007408F000CC2A4B
:10028000CC2A2B08031D4529462958290030F700A0
:100290000030F6000030F5000030F4007708F3007D
:1002A0007608F2007508F1007408F000CC2ACC2A18
:1002B0002C08F800F901F809F909F80A0319F90AF4
:1002C0002B087807FA0079080318790AFB007A08E6
:1002D0007F3EA5007B080318013E003EA60077087C
:1002E000A3007608A2007508A1007408A0000030E1
:1002F000F7000030F6000030F5000030F400003068
:10030000AA000030A9000030A8000030A700AC010E
:10031000DD292C0803198D298E29B0290130F80018
:100320000310A00DA10DA20DA30DF80B9029013013
:10033000F8000310F40DF50DF60DF70DF80B9929E3
:10034000AA1FA329A429A6297414A6290130F800FC
:100350000310A70DA80DA90DAA0DF80BA829B02907
:1003600073082302031DBE2972082202031DBE2941
:1003700071082102031DBE2970082002031CC12937
:10038000C229D8292A177008A0027108031C710F0E
:10039000CA29CB29A1027208031C720FD029D129C6
:1003A000A2027308031C730FD629D729A302D829E8
:1003B0000130F8007808AC07DD291A302C02031C44
:1003C000E229E3298929E4292308220421042004BD
:1003D0000319EB29EC290E2A27140E2A0E2A0130C4
:1003E000F8000310F40DF50DF60DF70DF80BF129DB
:1003F000AA1FFB29FC29FE297414FE290130F800EC
:100400000310A70DA80DA90DAA0DF80B002AFF30A7
:10041000A5070318A60AFF30A6070E2AF61F112A01
:10042000122AEF29132AAC01AA1F172A182A382AE0
:10043000FF302705F800FF302805F900FF302905B7
:10044000FA007F302A05FB007B087A0479047804DF
:1004500003192B2A2C2A2F2AAC01AC0A382A741C27
:10046000322A332A382AAC01AC0A382A382A382AE8
:100470002C0803193C2A3D2A702A0130F407003069
:1004800003180130F507003003180130F60700307B
:1004900003180130F707771C4E2A4F2A702A740878
:1004A000F8007508F9007608FA007708FB000130BB
:1004B000FC007B0DFB0CFA0CF90CF80CFC0B592A18
:1004C0007B08F7007A08F6007908F5007808F40050
:1004D0000130A5070318A60A0030A607702A702A63
:1004E0002608803AFF0080307F02031D792AFF3002
:1004F0002502031C7C2A7D2A8C2AFF3083120313D9
:10050000A5000030A6000030F7000030F6000030F3
:10051000F5000030F4008C2A831203132608803A79
:10052000FF0080307F02031D972A01302502031847
:100530009A2A9B2AA82A83120313A501A601003038
:10054000F7000030F6000030F5000030F400A401A0
:10055000831203132508F8007808AB002B1CB12A7E
:10056000B22AB42AF617B82A7F30F8007808F605C0
:100570002B08F8000310780CF9007908F70024081C
:10058000F8007808F7047708F3007608F200750899
:10059000F1007408F000CC2A0800831203138601CE
:1005A00083160313860107108710071183120313A4
:1005B00088018316031388010A128A158C210A12F6
:1005C0008A110A168A11FD260A128A110A168A1140
:1005D0002F270A128A110A168A11DE260A128A1198
:1005E000A0308400CD3083120313C0000408C10082
:1005F0000A30C2004008840083130008C300C00A08
:100600004108840043088000C10AC20BFA2A8316FD
:100610000313AA0183120313871007110F2B1C3039
:100620008312A0009030A1000A128A1584230A12B6
:100630008A11603083120313A0009030A1000A12C7
:100640008A1584230A128A113B3083120313A000F7
:100650009130A1000A128A1584230A128A11B73038
:1006600083120313A0009030A1000A128A1584237C
:100670000A128A11DE3083120313A0009130A10008
:100680000A128A1584230A128A118D3083120313E9
:10069000A0009030A1000A128A1584230A128A1140
:1006A0000A168A110A270A128A1183120313C0003C
:1006B000C101400883160313C100831203134108CC
:1006C00083160313C20041080A168A11F1260A1282
:1006D0008A11DE3083120313A0009130A1000A12A8
:1006E0008A1584230A128A11D02F903083120313A3
:1006F000A0009130A1000A128A1584230A128A11DF
:10070000F401F40A01300A128A1538210A128A11FA
:100710001C30F5009130F6000A128A15A9200A1241
:100720008A11F401F40A02300A128A1538210A12D9
:100730008A11FD30F5009030F6000A128A15A920C2
:100740000A128A1183160313BF01C0014008803AC0
:10075000FF0080307F02031DAF2B03303F02031CDC
:10076000B22BB32BB52BF92BF92B0A168A11942730
:100770000A128A118312031387140711043083129B
:100780000313C200CF30C1000130C000C00BC62B24
:10079000C10BC62BC20BC62B0A168A11CA270A1216
:1007A0008A11831203130715871004308312031371
:1007B000C200CF30C1000130C000C00BDD2BC10B27
:1007C000DD2BC20BDD2B013083160313BF0703188B
:1007D000C00A0030C0074008803AFF0080307F0226
:1007E000031DF42B03303F02031CF72BF82BB52B12
:1007F000F92B0A168A11FD260A128A118312031395
:1008000007118710E22F75308312A0009130A100EC
:100810000A128A1584230A128A110A168A11FD26E1
:100820000A128A11F401F40A01300A128A153821D9
:100830000A128A115930F5009130F6000A128A1511
:10084000A9200A128A11F401F40A02300A128A1548
:1008500038210A128A11DD30F5009030F6000A12B4
:100860008A15A9200A128A1183160313C501C6012D
:100870004608803AFF0080307F02031D412C0A3079
:100880004502031C442C452C472C8B2D8B2D8316A5
:1008900003134508A03E840083130008831203134A
:1008A0008600093083120313C200E130C100B13069
:1008B000C000C00B592CC10B592CC20B592C602CF9
:1008C00009308316031345064604031D682C692C62
:1008D000752D7F3083120313C200D430C100313034
:1008E000C000C00B712CC10B712CC20B712C831674
:1008F0000313C701C8014808803AFF0080307F0217
:10090000031D842C06304702031C872C882C8A2C5C
:10091000752D752D831603134708A03E840083139D
:100920000008831203138600093083120313C200E8
:10093000E130C100B130C000C00B9C2CC10B9C2C1D
:10094000C20B9C2CA32C05308316031347064804C6
:10095000031DAB2CAC2C5E2D7F3083120313C20021
:10096000D430C1003130C000C00BB42CC10BB42C4A
:10097000C20BB42C83160313C901CA014A08803A7A
:10098000FF0080307F02031DC72C09304902031C81
:10099000CA2CCB2CCD2C5E2D5E2D8316031349184B
:1009A000D22CD32C472D4908A03E84008313000885
:1009B000831203138600093083120313C200E1304F
:1009C000C100B130C000C00BE32CC10BE32CC20B43
:1009D000E32CEA2C08308316031349064A04031D4E
:1009E000F22CF32C472DCB01CC014C08803AFF00B0
:1009F00080307F02031DFE2C0A304B02031C012DA8
:100A0000022D042D472D472D831603134B1C092D52
:100A10000A2D2F2D4B08A03E84008313000883125B
:100A200003138600093083120313C200E130C100B2
:100A3000B130C000C00B1A2DC10B1A2DC20B1A2DDC
:100A4000212D0930831603134B064C04031D292D59
:100A50002A2D2F2D20088312031386002F2D0130FD
:100A600083160313CB070318CC0A0030CC074C08BD
:100A7000803AFF0080307F02031D402D0A304B0278
:100A8000031C432D442D042D472D472D472D0130A8
:100A900083160313C9070318CA0A0030CA074A0895
:100AA000803AFF0080307F02031D582D0930490233
:100AB000031C5B2D5C2DCD2C5E2D5E2D013083162D
:100AC0000313C7070318C80A0030C8074808803A4C
:100AD000FF0080307F02031D6F2D06304702031C8C
:100AE000722D732D8A2C752D752D013083160313ED
:100AF000C5070318C60A0030C6074608803AFF003B
:100B000080307F02031D862D0A304502031C892D8B
:100B10008A2D472C8B2D0A168A11FD260A128A115E
:100B2000E22FA93083120313A0009130A1000A1212
:100B30008A1584230A128A1104300A128A150120A8
:100B40000A128A11700883120313C0007108C100D1
:100B5000C201C3014308F8004208F7004108F6004B
:100B60004008F50000300A128A15C0220A128A11C4
:100B7000780883160313AE007708AD007608AC0042
:100B80007508AB00403083120313A3009C30A20011
:100B90003F30A100FB30A000831603132E08831200
:100BA0000313A700831603132D0883120313A60053
:100BB000831603132C0883120313A5008316031353
:100BC0002B0883120313A4000A128A158B240A121D
:100BD0008A1183120313230883160313B2008312AE
:100BE0000313220883160313B10083120313210891
:100BF00083160313B0008312031320088316031314
:100C0000AF004130F3002030F2000030F10000303E
:100C1000F0003208F7003108F6003008F5002F0820
:100C2000F4000A128A11BE200A128A117308831670
:100C30000313B6007208B5007108B4007008B30061
:100C4000360883120313A700831603133508831293
:100C50000313A60083160313340883120313A5009D
:100C600083160313330883120313A4004230A30036
:100C7000C830A2000030A1000030A0000A128A157E
:100C80008B240A128A11831203132308B800220846
:100C9000B7002108B6002008B5000A128A112220E8
:100CA0000A128A1183120313360883160313C40031
:100CB00083120313350883160313C3000A30F900A7
:100CC0000030FA00E830F0000330F1004408F3008F
:100CD0004308F2000A128A154F220A128A1171087B
:100CE000FC007008FB000A128A15EA210A128A1118
:100CF0007A0883160313B8007908B7000A30F900A0
:100D00000030FA006430F0000030F1004408F300D5
:100D10004308F2000A128A154F220A128A1171083A
:100D2000FC007008FB000A128A15EA210A128A11D7
:100D30007A0883160313BA007908B9000A30F9005B
:100D40000030FA000A30F0000030F1004408F300EF
:100D50004308F2000A128A154F220A128A117108FA
:100D6000FC007008FB000A128A15EA210A128A1197
:100D70007A0883160313BC007908BB000A30F90017
:100D80000030FA004408FC004308FB000A128A15F0
:100D9000EA210A128A117A0883160313BE00790821
:100DA000BD00C23083120313A0009130A1000A12CB
:100DB0008A1584230A128A11E93083120313A000D2
:100DC0009130A10083160313380883120313A30084
:100DD00083160313370883120313A2000A128A151D
:100DE00084230A128A11E93083120313A000913080
:100DF000A100831603133A0883120313A30083167A
:100E00000313390883120313A2000A128A158423DC
:100E10000A128A11A73083120313A0009130A10097
:100E20000A128A1584230A128A11E93083120313E5
:100E3000A0009130A100831603133C088312031312
:100E4000A300831603133B0883120313A2000A12A4
:100E50008A1584230A128A11E93083120313A00031
:100E60009130A100831603133E0883120313A300DD
:100E7000831603133D0883120313A2000A128A1576
:100E800084230A128A11EC3083120313A0009130DC
:100E9000A1000A128A1584230A128A11E6308312ED
:100EA0000313A0009130A1000A128A1584230A12AC
:100EB0008A110A168A11FD260A128A11033083123A
:100EC0000313C0004008F40001300A128A153821CB
:100ED0000A128A11D230F5009130F6000A128A15F2
:100EE000A9200A128A11053083120313C00040089A
:100EF000F40002300A128A1538210A128A11831668
:100F000003133708303E0A128A152F200A128A115D
:100F1000831603133908303E0A128A152F200A124D
:100F20008A11A730F5009130F6000A128A15A9201F
:100F30000A128A11831603133B08303E0A128A15DF
:100F40002F200A128A11831603133D08303E0A121D
:100F50008A152F200A128A11DF300A128A152F20D3
:100F60000A128A11EC30F5009130F6000A128A1547
:100F7000A9200A128A114D3083120313C2001930BE
:100F8000C1004F30C000C00BC32FC10BC32FC20B19
:100F9000C32F0A168A11FD260A128A11E22FE22FA8
:100FA000831603134208003A0319D72FE22F410892
:100FB000313A0319752B033A0319032C013A03192B
:100FC000912DE22F8316031341084204031DE92FDC
:100FD000EA2F0F2BEB2F0A128A1100288313D73028
:100FE000FD001630FE00E730FF00CD3084000A1609
:100FF0008A1120270A128A1183010A128A11CD2A26
:10100200F4000130F2007208831203139F05740882
:10101200F20002300310F20DFF3E031D0B280310F5
:10102200720DF30073089F040D30F300FB30F200E1
:10103200F20B1928F30B19281E28831203131F150C
:1010420022281F1925282628222827281E08F100D1
:10105200831603131E08F0002E280800F4007408FB
:101062000F39F1007108F2007408F039F1007108CB
:10107200F3008312031308157308F1000430031000
:10108200F10CFF3E031D402871080A168A114727FA
:101092000A128A158312031388154230F100F10BEC
:1010A2005028000083120313881172080A168A114D
:1010B20047270A128A158312031388154230F1005A
:1010C200F10B6128000083120313881108007808CD
:1010D200790403196D286E28A328FD01FD0A7D28D5
:1010E20001300310F80DF90DFF3E031D7228013087
:1010F200FC007C08FD077D28F91F802881287128C3
:101102008328832879087B02031D892878087A02BC
:10111200031C8C288D2894287808FA027908031C6D
:10112200FB03FB02942801300310F90CF80CFF3E7C
:10113200031D95280130FD02031DA028A128832844
:10114200A328A3287B08F9007A08F800A828080039
:10115200FA01FB01CF287A087507F8007608F70034
:101162000318F70AFA1FB628F7037708F900790877
:1011720083120313FF00780884000A168A110020E4
:101182000A128A150A128A152F200A128A150130AC
:10119200FA070318FB0A0030FB07CF287A08750705
:1011A200F8007608F7000318F70AFA1FD928F703A0
:1011B2007708F900790883120313FF007808840086
:1011C2000A168A1100200A128A15003A031DEA281B
:1011D200EB28AC28EC280800F501F6017008710430
:1011E2000319F428F5283229F701F70A04290130F6
:1011F2000310F00DF10DFF3E031DF9280130F4003C
:101202007408F7070429F11F07290829F8280A2971
:101212000A2901300310F50DF60DFF3E031D0B29BF
:1012220071087302031D172970087202031C1A2920
:101232001B2923297008F2027108031CF303F3022D
:101242007514232901300310F10CF00CFF3E031D2D
:1012520024290130F702031D2F2930290A293229B6
:1012620032297608F1007508F00037290800F700E6
:101272007703031D3D293E29612974087F3EF5004D
:101282007508FA007A08F50004300310F50CFF3EE9
:10129200031D46297508F6007608F8007A080F390A
:1012A200F5007508F90078080A128A1108200A1256
:1012B2008A1579080A128A1108200A128A158B29BE
:1012C20002307706031D662967298B297408BF3E01
:1012D200F5007508FA007A08F50004300310F50CE1
:1012E200FF3E031D6F297508F6007608F8007A089C
:1012F2000F39F5007508F90078080A128A110820DA
:101302000A128A1579080A128A1108200A128A1505
:101312008B298B29080000300A168A1147270A12E6
:101322008A158230F500DD30F400F40B9629F50BB6
:1013320096299B2903300A128A1108200A128A155B
:101342002130F5007630F400F40BA529F50BA52920
:10135200000003300A128A1108200A128A15483046
:10136200F5006C30F400F40BB429F50BB42900003D
:1013720003300A128A1108200A128A1502300A1250
:101382008A1108200A128A1502300A128A110820CC
:101392000A128A1508300A128A1108200A128A15BE
:1013A20000300A128A1108200A128A150C300A1219
:1013B2008A1108200A128A1500300A128A1108209E
:1013C2000A128A1506300A128A1108200A128A1590
:1013D200080083120313A101FC1FF029F129F92946
:1013E200FB09FC09FB0A0319FC0AA101A10AF9295C
:1013F200FA1FFC29FD29032AF909FA09F90A031936
:10140200FA0A032A79087A040319082A092A3E2AC1
:10141200A001A00A182A01300310F90DFA0DFF3EAF
:10142200031D0D2A0130FD007D08A007182AFA1FAE
:101432001B2A1C2A0C2A1E2A1E2A7A087C02031D39
:10144200242A79087B02031C272A282A2F2A7908B2
:10145200FB027A08031CFC03FC022F2A0130031052
:10146200FA0CF90CFF3E031D302A0130A002031DC5
:101472003B2A3C2A1E2A3E2A3E2A21080319422AD6
:10148200432A492AFB09FC09FB0A0319FC0A492AD7
:101492007C08FA007B08F9004E2A0800F601F11FC9
:1014A200532A542A5C2AF009F109F00A0319F10AB5
:1014B200F601F60A5C2AF31F5F2A602A6A2AF209F9
:1014C200F309F20A0319F30A0130F4007408F6066C
:1014D2006A2AF701F801700871040319712A722A45
:1014E200AF2AF501F50A812A01300310F00DF10D42
:1014F200FF3E031D762A0130F4007408F507812AA5
:10150200F11F842A852A752A872A872A0130031027
:10151200F70DF80DFF3E031D882A71087302031DA3
:10152200942A70087202031C972A982AA02A70082B
:10153200F2027108031CF303F3027714A02A0130AC
:101542000310F10CF00CFF3E031DA12A0130F5023D
:10155200031DAC2AAD2A872AAF2AAF2A76080319BF
:10156200B32AB42ABA2AF709F809F70A0319F80ABA
:10157200BA2A7808F1007708F000BF2A080083121F
:101582000313A00020080319C72AC82ADC2AF81F5F
:10159200CB2ACC2ADC2A7509A2007609A300770996
:1015A200A4007809A500A20A0319A30A0319A40A30
:1015B2000319A50AE42A7808A5007708A40076088A
:1015C200A3007508A2007808770476047504031D49
:1015D200EB2AEC2AF62A0030F8000030F70000303F
:1015E200F6000030F500832B832B9630F900790842
:1015F200A100092B0130F9007908A107013003107D
:10160200A50CA40CA30CA20CFF3E031D002B092B5E
:10161200FE302505031D0E2B0F2BFB2A2C2B2C2B0A
:101622000130F9007908A1070130A2070030031840
:101632000130A307003003180130A407003003185B
:101642000130A50701300310A50CA40CA30CA20CB9
:10165200FF3E031D242BFF302505031D312B322BAA
:10166200112B402B402B0130A1020130F900031055
:10167200A20DA30DA40DA50DF90B382B402BA41B15
:10168200432B442B4B2B023021020318492B4A2BAC
:10169200342B4B2B21184E2B4F2B572BFF30A205EF
:1016A200FF30A3057F30A405FF30A5050310A10C70
:1016B2002108F900FA01FB01FC0118300310F90DB1
:1016C200FA0DFB0DFC0DFF3E031D5F2B7908A204F2
:1016D2007A08A3047B08A4047C08A5042008031943
:1016E200732B742B7A2BF81F772B782B7A2BA51759
:1016F2007A2B2508F8002408F7002308F6002208B0
:10170200F500832B0800223083120313A40024085F
:10171200A8006E2C25302D060319902B912B982BA7
:101722002D080A168A11D6260A128A156E2C8312E1
:101732000313A901A12B8A2CC42BC42B6E2CC42BFE
:101742002108A5002008A400A00A0319A10A25085F
:10175200FF00240884000A168A1100200A128A1542
:10176200AD00A600A7012708003A0319B92B6E2C79
:101772002608003A03198A2C643A0319C42B0D3A3D
:101782000319C42B6E2C2808840083130008AB00B5
:10179200840A0008AC000230A4002408A807AC1F89
:1017A200D32BD42BDE2B0330A4002408A904AB09CD
:1017B200AC09AB0A0319AC0ADE2BAD01AD0A053048
:1017C2002D06031DE52BE62BE82B142C142C2D08DB
:1017D200A4002407123E840090300318013EFF004B
:1017E2000A168A1100200A128A15A5000A168A1101
:1017F20000200A128A15A60026082C02031D032CBB
:1018020025082B020318062C072C092C142C142C47
:101812000130A4002408AD0705302D06031D122C4B
:10182200132CE82B142C290803390319192C1A2C10
:10183200212C2D300A168A11D6260A128A15212C3D
:10184200831203132D08A4002408AA00612C0A3075
:10185200F8000030F9002A08A4002407123E840090
:1018620090300318013EFF000A168A1100200A1266
:101872008A15F0000A168A1100200A128A15F10050
:101882002C08F3002B08F2000A128A15ED200A1226
:101892008A157108FB007008FA000A128A1568207E
:1018A2000A128A157808303E83120313A500250810
:1018B200AD002D080A168A11D6260A128A15612C45
:1018C200FF3083120313A4002408AA072A0A031D67
:1018D2006B2C6C2C282C6E2C6E2C8312031321087B
:1018E200A5002008A400A00A0319A10A2508FF00E8
:1018F200240884000A168A1100200A128A15A600FA
:101902002608AD002D08031D872C882C8B2B8A2CD2
:101912008A2C08008312031323088039F9007908FE
:10192200A8002308F9007907FA007A08AE00A21F7E
:101932009B2C9C2C9E2C2E149E2C2E080319A22C20
:10194200A32CB32C2E0A031DA72CA82CB12C0030DB
:10195200A3000030A2000030A1000030A000B12C92
:10196200A217BC2C0030A3000030A2000030A1005E
:101972000030A000BC2C27088039F9007908A8069D
:101982002708F9007907FA007A08AD00A61FCA2CC9
:10199200CB2CCD2C2D14CD2C2D080319D12CD22CCF
:1019A200E22C2D0A031DD62CD72CE02C0030A700E8
:1019B2000030A6000030A5000030A400E02CA617DD
:1019C200EB2C0030A7000030A6000030A50000304C
:1019D200A400EB2C2D080319EF2CF02CF62C2E086A
:1019E200031DF42CF52C002DF62C0030A300003042
:1019F200A2000030A1000030A000FF2FFF2F20081E
:101A0200F9007908F00026080A168A116A270A12D4
:101A12008A15710883120313B4007008B3003308E7
:101A2200F900FA01FB01FC017C08AC007B08AB0069
:101A32007A08AA007908A9003408F900FA01FB0122
:101A4200FC017C08B2007B08B1007A08B00079087A
:101A5200AF002108F9007908F00025080A168A115A
:101A62006A270A128A15710883120313B4007008D8
:101A7200B3003308F900FA01FB01FC017908A90758
:101A82007A0803110318013E0319482DAA077B089F
:101A920003110318013E03194F2DAB077C080311F4
:101AA2000318013E0319562DAC073408F900FA0158
:101AB200FB01FC017908AF077A0803110318013E04
:101AC2000319642DB0077B0803110318013E0319A3
:101AD2006B2DB1077C0803110318013E0319722D07
:101AE200B2072208F9007908F00024080A168A11C0
:101AF2006A270A128A15710883120313B400700848
:101B0200B3003308F900FA01FB01FC017908A907C7
:101B12007A0803110318013E0319902DAA077B08C6
:101B220003110318013E0319972DAB077C0803111B
:101B32000318013E03199E2DAC073408F900FA017F
:101B4200FB01FC017908AF077A0803110318013E73
:101B52000319AC2DB0077B0803110318013E0319CA
:101B6200B32DB1077C0803110318013E0319BA2DE6
:101B7200B2070830F9000310A90DAA0DAB0DAC0D88
:101B8200F90BBC2D2108F9007908F00024080A1687
:101B92008A116A270A128A15710883120313B40084
:101BA2007008B3003308F9003408FA00FB01FC01A5
:101BB2007908A9077A0803110318013E0319E22DD7
:101BC200AA077B0803110318013E0319E92DAB078D
:101BD2007C0803110318013E0319F02DAC072008FD
:101BE200F9007908F00025080A168A116A270A12F4
:101BF2008A15710883120313B4007008B300330806
:101C0200F9003408FA00FB01FC017908A9077A08F7
:101C120003110318013E03190F2EAA077B080311B3
:101C22000318013E0319162EAB077C080311031893
:101C3200013E03191D2EAC070830F9000310A90D4F
:101C4200AA0DAB0DAC0DF90B1F2E2008F900790877
:101C5200F00024080A168A116A270A128A157108E6
:101C620083120313B4007008B3003308F900340878
:101C7200FA00FB01FC017908A9077A08031103188D
:101C8200013E0319452EAA077B0803110318013EE2
:101C920003194C2EAB077C0803110318013E0319EC
:101CA200532EAC072108F9007908F00026080A161D
:101CB2008A116A270A128A15710883120313B40063
:101CC2007008B3003308F9003408FA00FB01FC0184
:101CD2007908AF077A0803110318013E0319722E1F
:101CE200B0077B0803110318013E0319792EB107CF
:101CF2007C0803110318013E0319802EB207220843
:101D0200F9007908F00025080A168A116A270A12D2
:101D12008A15710883120313B4007008B3003308E4
:101D2200F9003408FA00FB01FC017908AF077A08D0
:101D320003110318013E03199F2EB0077B080311FC
:101D42000318013E0319A62EB1077C0803110318DC
:101D5200013E0319AD2EB2072208F9007908F000FE
:101D620026080A168A116A270A128A15710883122E
:101D72000313B4007008B3003308F9003408FA0002
:101D8200FB01FC0108300310F90DFA0DFB0DFC0DEF
:101D9200FF3E031DC42E7908AF077A08031103180A
:101DA200013E0319D52EB0077B0803110318013E2B
:101DB2000319DC2EB1077C0803110318013E031935
:101DC200E32EB2072908F9002A08FA002B08FB00C3
:101DD2002C08FC0018300310FC0CFB0CFA0CF90C5C
:101DE200FF3E031DEC2E7908AF077A080311031892
:101DF200013E0319FD2EB0077B0803110318013EB3
:101E02000319042FB1077C0803110318013E0319BB
:101E12000B2FB2070830F9000310A90DAA0DAB0D64
:101E2200AC0DF90B0D2F2E082D07F900FA01FA0D52
:101E32007908823EB3007A080318013EFF3EB400DF
:101E4200412F0130F9000310AF0DB00DB10DB20DED
:101E5200F90B242FAC1F2E2F2F2F312F2F14312FA0
:101E62000130F9000310A90DAA0DAB0DAC0DF90B51
:101E7200332FFF30B3070318B40AFF30B407412FE2
:101E8200B11F442F452F222F462FAD01AC1F4A2FE1
:101E92004B2F6B2FFF302905F900FF302A05FA007E
:101EA200FF302B05FB007F302C05FC007C087B04F7
:101EB2007A04790403195E2F5F2F622FAD01AD0AF8
:101EC2006B2F2F1C652F662F6B2FAD01AD0A6B2F69
:101ED2006B2F6B2F2D0803196F2F702FA32F01303B
:101EE200AF07003003180130B0070030031801308B
:101EF200B107003003180130B207321C812F822F44
:101F0200A32F2F08F9003008FA003108FB0032082D
:101F1200FC000130FD007C0DFC0CFB0CFA0CF90CF2
:101F2200FD0B8C2F7C08B2007B08B1007A08B00050
:101F32007908AF000130B3070318B40A0030B407C0
:101F4200A32FA32F3408803AFF0080307F02031DA5
:101F5200AC2FFF303302031CAF2FB02FBB2F7F30CB
:101F620083120313B2008030B1000030B0000030A1
:101F7200AF00F22F831203133408803AFF0080303F
:101F82007F02031DC62F013033020318C92FCA2F47
:101F9200D62F003083120313B2000030B10000309C
:101FA200B0000030AF00A801F22F831203133308F0
:101FB200F9007908AE00FF30AF05FF30B0057F3081
:101FC200B1050030B2052E1CE72FE82FEA2FB1171A
:101FD200EA2F2E08F9000310790CFA007A08B200F1
:101FE200F22F2808F9007908B2043208A300310858
:101FF200A2003008A1002F08A000FF2F0800FF1B3D
:102002000A2883137F1883170008840A0319FF0A1A
:1020120008007F087F398A000408840A0319FF0A2E
:102022008200013400340A34003464340034E83469
:102032000334103427342A342A342A3444346F3493
:10204200623472346F3464346F3473346C34693490
:10205200213420344F3476346F3420346A3465347A
:1020620020346434723475346734693420347A34F9
:10207200613464346134743461346B3420346E34CA
:10208200613420346934733470346934743475348F
:102092002E3420345A346534683472346134203436
:1020A200533461346234693463342C342034383428
:1020B2003934303420342A342A342A3400340D346A
:1020C20031342E34203452346F34743461346334F6
:1020D20069346A346134203473346534723476344A
:1020E2006F346D346F3474346F347234613420342D
:1020F200333420347034753474346134203475349C
:1021020020346F346234653420347334743472345E
:1021120061346E34653400340D344D346F346C34B4
:1021220069346D346F34203476346134733420343E
:102132006F346434613462346534723469347434B3
:10214200653420346F347034633469346A347534DE
:10215200203431342C3420343234203469346C3419
:102162006934203433343A34203400340D34333477
:102172002E34203449347334703469347334203447
:10218200743465346D34703465347234613474344B
:1021920075347234653420346E34613420344C34F6
:1021A20043344434203464346934733470346C34CA
:1021B20065346A347534003430342D3439342C3477
:1021C200203430342D3435342C34203430342D3412
:1021D20032342D3434342D3436342D3438342D34D5
:1021E20031342D3433342D3435342D3437342D34C9
:1021F20039342D3430340034613420347A3461344B
:10220200743469346D342034753420346434723457
:1022120075346734753420347334743472346134F1
:102222006E3475342034333420347034753474345D
:1022320061342134003452346F347434693472346A
:1022420061346E346A3465342034733465347234E4
:1022520076346F346D346F3474346F347234613465
:102262002034753420346A34653464346E34753401
:102272002C3400340D3432342E342034423472344F
:102282006F346A3461346E346A34653420346E34A7
:102292006134203437347334653467342034643421
:1022A2006934733470346C3465346A347534003490
:1022B200423472346F346A3461346E346A34653451
:1022C20020346E34613420343734733465346734E7
:1022D200203464346934733470346C3465346A3451
:1022E20075343A34203400340D340D3449347A34A0
:1022F20061346234723461346C346934203473343E
:102302007434653420346F347034633469346A341D
:102312007534203432342E3420340D3400340D34EC
:102322000D3449347A3461346234723461346C3439
:102332006934203473347434653420346F34703427
:10234200633469346A347534203431342E340034C1
:102352000D340D3449347A34613462347234613468
:102362006C346934203473347434653420346F34FB
:102372007034633469346A347534203433342E341F
:1023820000340D340D34543465346D347034653496
:102392007234613474347534723461343A342034B2
:1023A2000034543465346D347034653472346134BD
:1023B200743475347234613400340D342A342A345E
:1023C2002A342A342A342A3400340D340D340034A9
:0A23D200253469340034433400342C
:102DAC00F10071080A168A11F1260A168A11080018
:102DBC004130831203139F00C030831603139F000E
:102DCC0008003F3406345B344F3466346D347D3444
:102DDC0007347F346F34F000F32E831203130C1E70
:102DEC00F82EF92EF32EFA2E7008990008000030F8
:102DFC000A128A1108200A168A1101300A128A1145
:102E0C0008200A168A11080083120313981C0F2F2E
:102E1C00102F142F18121816142F142F8C1E172F56
:102E2C00182F142F192F1A081B2F08007E088A0040
:102E3C007F0882000A168A111C270A168A11800044
:102E4C00840A04087D0603190034FF0A0319FE0ADC
:102E5C00202F831603130713871781309900181539
:102E6C0018128312031398178316031398168312E0
:102E7C000313181683160313181383120313181352
:102E8C000800F000701C4B2F4C2F502F8312031393
:102E9C000816532F831203130812F01C562F572FAA
:102EAC00592F88165A2F8812701D5D2F5E2F602F98
:102EBC000817612F0813F01D642F652F672F8817D3
:102ECC00692F8813692F0800F800F401F5017008C8
:102EDC00F200F3017208F6007308F700752F781CE6
:102EEC00782F792F7F2F7608F4070318F50A7708C7
:102EFC00F50701300310F60DF70DFF3E031D802F73
:102F0C000310F80C7808031D8C2F8D2F752F8E2F26
:102F1C007508F1007408F000932F0800F201F3011A
:102F2C0000307302323003197202031C9E2F9F2F44
:102F3C00A12FC92FC92F8312031307140630F100D8
:102F4C003030F000F00BA82FF10BA82F00008312EB
:102F5C00031307107D30F100AB30F000F00BB42FF1
:102F6C00F10BB42FB92F0130F2070318F30A00301C
:102F7C00F30700307302323003197202031CC72F9F
:102F8C00C82FA12FC92F0800F201F30100307302E2
:102F9C00323003197202031CD42FD52FD72FFF2FD9
:102FAC00FF2F8312031307140F30F1004730F0008A
:102FBC00F00BDE2FF10BDE2FE32F83120313071020
:102FCC007430F1009430F000F00BEA2FF10BEA2F83
:102FDC0000000130F2070318F30A0030F307003049
:102FEC007302323003197202031CFD2FFE2FD72FF0
:042FFC00FF2F08009B
:02400E007A3FF7
:00000001FF
