:020000040000FA
:060000000A128A11FC2F18
:100EB80083160313061086100611861583128619E9
:100EC800662F672F812F1A30F500F830F400F40BE5
:100ED8006B2FF50B6B2F0000831203138619752FE8
:100EE800762F622F0A128A11C6270A128A118312D4
:100EF800031386140611622F622F0A128A11902793
:100F08000A128A118312031306158610622F622FA4
:100F1800622F0A128A110028F201F30100307302CD
:100F2800323003197202031C9A2F9B2F9D2FC52F55
:100F3800C52F8312031306140530F1002630F00084
:100F4800F00BA42FF10BA42F00008312031306103B
:100F58006430F100BC30F000F00BB02FF10BB02F73
:100F680000000130F2070318F30A0030F3070030DD
:100F78007302323003197202031CC32FC42F9D2F32
:100F8800C52F0800F201F301003073023230031953
:100F98007202031CD02FD12FD32FFB2FFB2F8312CC
:100FA800031306140C30F1006C30F000F00BDA2F4C
:100FB800F10BDA2F00008312031306105D30F100E5
:100FC8007630F000F00BE62FF10BE62F0000013031
:100FD800F2070318F30A0030F307003073023230C7
:100FE80003197202031CF92FFA2FD32FFB2F0800C5
:080FF80083010A128A115C2F2B
:02400E007A3FF7
:00000001FF
