:020000040000FA
:060000000A128A11EE2F26
:100EE0003F3406345B344F3466346D347D3407341C
:100EF0007F346F347E088A007F0882000A128A11CC
:100F00007A270A128A118000840A04087D060319D0
:100F10000034FF0A0319FE0A7E2F203084002B3094
:100F2000F0000408F1000A30F20070088400831316
:100F30000008F300F00A7108840073088000F10AC9
:100F4000F20B952F83120313AA0186018316031354
:100F500086010714AB2F8312071CAF2FB02FE22F8F
:100F60001A30F100F830F000F00BB42FF10BB42F71
:100F7000000083120313071CBE2FBF2FAB2F2A08BC
:100F8000203E84008313000886000630F2001330F0
:100F9000F100AD30F000F00BCB2FF10BCB2FF20BAB
:100FA000CB2FD22F0130F000700883120313AA0751
:100FB0000A302A02031CDD2FDE2FAB2FAA01AB2F34
:100FC000AB2FAB2F2A08203E840083130008860035
:100FD000AB2FAB2FAB2F0A128A11002883133530A9
:100FE000FD000730FE007030FF002B3084000A1235
:100FF0008A117E270A128A1183010A128A118D2F03
:02400E007A3FF7
:00000001FF
